:100000000C942A000C943F000C943F000C943F0089
:100010000C943F000C943F000C943F000C943F0064
:100020000C943F000C943F000C943F000C943F0054
:100030000C943F000C943F000C943F000C943F0044
:100040000C943F000C943F000C943F000C943F0034
:100050000C943F0011241FBECFE5D8E0DEBFCDBF1A
:1000600010E0A0E6B0E0E4E2F1E102C005900D92FC
:10007000A038B107D9F70E94C0060C9490080C94E0
:100080000000A0E2B0E0E7E4F0E00C942808698307
:100090007A838B839C832D833E834F835887CE0145
:1000A0000196BE01675F7F4F0E946402CE010596F4
:1000B000BE016F5E7F4F0E9464029985923088F086
:1000C00089898230C8F0943019F4823051F404C028
:1000D000843029F4923081F480E690E0C6C09230FA
:1000E00049F420E09A858A89981321E02A87CE0175
:1000F0000996BBC0823049F420E09A858A8998131A
:1001000021E02A8BCE014196B0C02D843E844F84DD
:1001100058886D887E888F88988CEE24FF2487010C
:10012000AA24BB24650140E050E060E070E0E0E01C
:10013000F0E0C10181709070892BE9F0E60CF71CAA
:10014000081D191D9A01AB012A0D3B1D4C1D5D1D9B
:1001500080E090E0A0E0B0E0E614F704080519059F
:1001600020F481E090E0A0E0B0E0BA01A901480FDE
:10017000591F6A1F7B1FAA0CBB1CCC1CDD1C97FEE1
:1001800008C081E090E0A0E0B0E0A82AB92ACA2A1D
:10019000DB2A3196E032F10549F0660C771C881CA9
:1001A000991C5694479437942794C3CFFA85EA89CB
:1001B0002B893C898B859C85280F391F2E5F3F4FEB
:1001C00017C0CA0181709070892B61F01695079550
:1001D000F794E79480E090E0A0E0B0E8E82AF92AFC
:1001E0000A2B1B2B76956795579547952F5F3F4FA9
:1001F00077FDE7CF0CC0440F551F661F771F17FD13
:100200004160EE0CFF1C001F111F21503040403098
:1002100090E0590790E0690790E4790760F32B8F2D
:100220003C8FDB01CA018F779070A070B070803472
:100230009105A105B10561F447FD0AC0E114F1047F
:100240000105110529F0405C5F4F6F4F7F4F4078EB
:100250001A8EFE1711F081E08A8F4D8F5E8F6F8F9F
:1002600078A383E0898FCE0149960E948F01A096E2
:10027000E2E10C944408ACE0B0E0E1E4F1E00C947D
:10028000380869837A838B839C83CE010196BE01F3
:100290006B5F7F4F0E9464028D81823061F18230FA
:1002A00050F1843021F48E81882351F12EC02F81AA
:1002B000388537FD20C06E812F3131051CF0662353
:1002C000F9F023C08EE190E0821B930B29853A85DB
:1002D0004B855C8504C056954795379527958A953B
:1002E000D2F76623B1F050954095309521953F4F58
:1002F0004F4F5F4F0EC020E030E040E050E009C0BB
:100300002FEF3FEF4FEF5FE704C020E030E040E029
:1003100050E8B901CA012C96E2E00C945408DF922F
:10032000EF92FF920F931F93FC01E480F58006810A
:100330001781D1808081823048F480E090E0A0E194
:10034000B0E0E82AF92A0A2B1B2BA5C0843009F457
:100350009FC0823021F4EE24FF24870105C0E11400
:10036000F1040105110519F4E0E0F0E096C06281A6
:1003700073819FEF623879070CF05BC022E83FEF92
:10038000261B370B2A3131052CF020E030E040E00D
:1003900050E02AC0B801A701022E04C076956795E7
:1003A000579547950A94D2F781E090E0A0E0B0E03D
:1003B00004C0880F991FAA1FBB1F2A95D2F7019767
:1003C000A109B1098E219F21A023B1230097A10586
:1003D000B10521F081E090E0A0E0B0E09A01AB012E
:1003E000282B392B4A2B5B2BDA01C9018F779070B0
:1003F000A070B07080349105A105B10539F427FFD4
:1004000009C0205C3F4F4F4F5F4F04C0215C3F4FFE
:100410004F4F5F4FE0E0F0E02030A0E03A07A0E06F
:100420004A07A0E45A0710F0E1E0F0E079018A0100
:1004300027C06038710564F5FB01E158FF4FD80112
:10044000C7018F779070A070B07080349105A105BE
:10045000B10539F4E7FE0DC080E490E0A0E0B0E023
:1004600004C08FE390E0A0E0B0E0E80EF91E0A1FA0
:100470001B1F17FF05C016950795F794E794319653
:1004800087E016950795F794E7948A95D1F705C00C
:10049000EE24FF248701EFEFF0E06E2F67956627CB
:1004A0006795902F9F77D794DD24D7948E2F8695CC
:1004B000492F462B582F5D29B701CA011F910F9173
:1004C000FF90EF90DF900895FC01DB0140815181A6
:1004D0002281622F6F7770E0221F2227221F9381D3
:1004E000892F880F822B282F30E0991F9927991F79
:1004F00011969C93119721153105A9F541155105C8
:100500006105710511F482E037C082E89FEF139610
:100510009C938E9312979A01AB0167E0220F331FD1
:10052000441F551F6A95D1F783E08C930DC0220FAD
:10053000331F441F551F12968D919C91139701975D
:1005400013969C938E931297203080E0380780E0BA
:10055000480780E4580758F314962D933D934D9324
:100560005C93179708952F3F310579F44115510594
:100570006105710519F484E08C93089564FF03C04C
:1005800081E08C9312C01C9210C02F5730401396FC
:100590003C932E93129783E08C9387E0440F551F72
:1005A000661F771F8A95D1F7706414964D935D93FB
:1005B0006D937C9317970895813049F0813028F02E
:1005C000823039F0833041F406C06ABB089567BBBE
:1005D000089564BB089561BB0895813049F081306E
:1005E00028F0823039F0833041F406C06BBB0895A7
:1005F00068BB089565BB089562BB08954130B1F5AD
:10060000813099F0813030F08230D1F0833009F0C0
:1006100067C021C02AB381E090E002C0880F991F13
:100620006A95E2F7282B2ABB089527B381E090E072
:1006300002C0880F991F6A95E2F7282B27BB0895FF
:1006400024B381E090E002C0880F991F6A95E2F719
:10065000282B24BB089521B381E090E002C0880FCD
:10066000991F6A95E2F7282B21BB08954423C1F511
:10067000813099F0813028F08230D9F0833081F5D3
:1006800024C02AB381E090E002C0880F991F6A95C8
:10069000E2F7809582238ABB089527B381E090E03A
:1006A00002C0880F991F6A95E2F78095822387BB65
:1006B000089524B381E090E002C0880F991F6A95E5
:1006C000E2F78095822384BB089521B381E090E016
:1006D00002C0880F991F6A95E2F78095822381BB3B
:1006E0000895413099F5813091F0813030F08230B9
:1006F000C1F0833009F09CC01EC02BB381E090E0B4
:1007000002C0880F991F6A95E2F7282B6FC028B3A3
:1007100081E090E002C0880F991F6A95E2F7282BCC
:1007200070C025B381E090E002C0880F991F6A95E0
:10073000E2F7282B71C022B381E090E002C0880F5D
:10074000991F6A95E2F7282B22BB08954423D1F51F
:100750008130A1F0813030F08230E1F0833009F057
:1007600067C024C02BB381E090E002C0880F991FBE
:100770006A95E2F7809582238BBB089528B381E0C8
:1007800090E002C0880F991F6A95E2F78095822356
:1007900088BB089525B381E090E002C0880F991FBF
:1007A0006A95E2F78095822385BB089522B381E0A4
:1007B00090E002C0880F991F6A95E2F78095822326
:1007C00082BB08954230A1F5813091F0813028F04C
:1007D0008230C9F0833061F521C02BB381E090E015
:1007E00002C0880F991F6A95E2F728272BBB08954E
:1007F00028B381E090E002C0880F991F6A95E2F764
:10080000282728BB089525B381E090E002C0880F17
:10081000991F6A95E2F7282725BB089522B381E046
:1008200090E002C0880F991F6A95E2F7282722BB43
:100830000895813049F0813028F0823039F08330DA
:10084000B1F40DC089B303C086B301C083B390E097
:1008500002C0959587956A95E2F78170089580B3F7
:1008600090E002C0959587956A95E2F781700895AA
:10087000682F81E040E00E94710308950F931F9359
:10088000082F81E060916C000E941904882311F404
:1008900010E01AC081E060916D000E941904882365
:1008A00011F411E011C081E060916E000E94190402
:1008B000882311F412E008C081E060916F000E946B
:1008C0001904882339F413E081E0602F41E00E948D
:1008D000710306C081E0602F41E00E9471031FEFA9
:1008E000812F1F910F910895EF92FF920F931F9305
:1008F000CF93DF93C8E6D0E00FEF10E080EAE82E58
:100900008FE0F82E81E0688140E00E9471038881C9
:100910000E943E048F3F11F0012F080FC70101977D
:10092000F1F721961C5F103169F7E02FF0E0E059F4
:10093000FF4F8081DF91CF911F910F91FF90EF903A
:100940000895CF93DF93C8E6D0E081E0688141E06D
:100950000E94FE0281E0699141E00E94710380E003
:10096000CC36D80791F7CCE6D0E081E0688140E052
:100970000E94FE0281E0699141E00E94710380E0E3
:10098000C037D80791F7DF91CF91089582E06FEFDC
:100990000E94DC0283E062E041E00E94FE0283E00C
:1009A00063E041E00E94FE0283E064E041E00E94D7
:1009B000FE0208951F93182F83E062E041E00E9439
:1009C000710383E063E040E00E94710382E0612FE5
:1009D0000E94ED0283E064E041E00E94710380EA3E
:1009E0009FE00197F1F783E064E040E00E9471032B
:1009F0001F910895CF93DF93EC01CA30D10530F4F5
:100A00009E01205D822F0E94DA042CC0CE01815FFE
:100A1000984D8F50974238F48DE20E94DA04D095B9
:100A2000C195DF4FEACFCE010A978A35910560F074
:100A3000CE01845690408458934030F0CE01885EB9
:100A400093408852934270F4CE016AE070E00E94B5
:100A50000108CB010E94FA04CE016AE070E00E9416
:100A60000108CACFDF91CF910895AF92BF92CF9284
:100A7000DF92EF92FF920F931F935B016C010E9434
:100A80003B017B018C01CB010E94FA048EE20E94A3
:100A9000DA04C601B50120E030E040E251E40E94F2
:100AA00041000E943B01DC01CB01B7010E9401081B
:100AB00018161906BCF0C601B50120E030E040E28E
:100AC00051EC0E9441000E943B017B018C01C60158
:100AD000B50190580E943B019B01AC01C701B901CF
:100AE0000E9401080E94FA041F910F91FF90EF905D
:100AF000DF90CF90BF90AF9008951F93CF93DF9377
:100B0000EC0110E003C00E94DA041F5FFE01E10F58
:100B1000F11D80818823B9F7DF91CF911F9108954E
:100B20000F931F93DF93CF93CDB7DEB7A0970FB688
:100B3000F894DEBF0FBECDBF8E010F5F1F4FB8010F
:100B40004AE050E00E945F08C8010E947D05A0961F
:100B50000FB6F894DEBF0FBECDBFCF91DF911F91CE
:100B60000F9108951F93182F83E062E040E00E94E8
:100B7000710383E063E040E00E94710382E0612F33
:100B80000E94ED0283E064E041E00E94710380EA8C
:100B90009FE00197F1F783E064E040E00E94710379
:100BA0001F910895662319F0613009F4805C805824
:100BB0000E94B2050895DF92EF92FF920F931F9368
:100BC000CF93DF938C01F62EE42ED22E862F880F42
:100BD000880F880F805C0E94B205C0E0D0E0F80169
:100BE000EC0FFD1F80810E94DA042196C830D105E8
:100BF000B1F78E2D6D2D0E94D2058F2D0E94DA0443
:100C0000DF91CF911F910F91FF90EF90DF900895AA
:100C10008EE591E028EC30E0F9013197F1F701978A
:100C2000D9F78CE30E94B2058CE00E94B20581E006
:100C30000E94B20508950F931F93182F80E067E07C
:100C40000E941904082F143029F1153048F411308E
:100C5000C1F0113098F01230B9F0133071F517C0AF
:100C6000173009F1183028F41530B9F0163029F58D
:100C700017C01830D9F0193001F51BC080E06FE3C0
:100C80001AC080E066E017C080E06BE514C080E029
:100C90006FE411C080E066E60EC080E06DE60BC038
:100CA00080E06DE708C080E067E005C080E06FE7A6
:100CB00002C080E06FE60E94ED0280E067E0402F16
:100CC0000E9471031F910F9108951F9380E067E0C8
:100CD0000E941904182F80E060E00E94ED0280E07D
:100CE00067E0412F0E9471031F91089580E060E04A
:100CF00041E00E94FE0280E061E041E00E94FE02CD
:100D000080E062E041E00E94FE0280E063E041E0BA
:100D10000E94FE0280E064E041E00E94FE0280E06A
:100D200065E041E00E94FE0280E066E041E00E9452
:100D3000FE020895529886E880BD83E389B9549AEB
:100D4000539A08955D9BFECF8CB908955F9BFECFAB
:100D50008CB10895AC0120E030E0FA01E20FF31FFE
:100D6000DB01A20FB31F90818C91981711F086E0E0
:100D700008952F5F3F4F2430310579F787E00895BC
:100D80006F927F928F929F92AF92BF92CF92DF929B
:100D9000EF92FF920F931F93DF93CF93CDB7DEB700
:100DA00060970FB6F894DEBF0FBECDBF31E0398338
:100DB00022E02A8393E09B8384E08C833D832E830F
:100DC0009F83888780E067E040E00E94FE0280E029
:100DD00067E041E00E94710382E060E041E00E9430
:100DE000FE0282E061E041E00E94FE020E94C60431
:100DF0000E9408060E949A060E94A1040E9476069C
:100E000059E0A52EB12CAC0EBD1E3E010894611C0C
:100E1000711C4DE0C42ED12CCC0EDD1E35E0832E8E
:100E2000912C8C0E9D1E05C082E00E94A2060E949D
:100E3000650680E067E00E9419048823A9F783E033
:100E40000E941B0683E00E94A2060E94A6068D3324
:100E5000E1F782E060E042E00E94710323E0E22ECD
:100E600081E00E94B20519861A861B861C861D86A3
:100E70001E861F86188A80E060E00E94D20500E08E
:100E80000E947404182F90EDF92EF80E89E08F154A
:100E9000A8F0043098F40E947404803320F00E947B
:100EA00074048A33C0F3812F0E94A206F501E00F7B
:100EB000F11DF082812F0E94DA040F5F1D3301F7CC
:100EC0008DE30E94DA040E9474048D33E1F38DE314
:100ED0000E94A20620E030E0F301E20FF31FD501EB
:100EE000A20FB31F90818C91981709F054C02F5F07
:100EF0003F4F2430310581F76FC00E947404182FD2
:100F000080EDF82EF10E89E08F15A8F0043098F4EA
:100F10000E947404803320F00E9474048A33C0F36A
:100F2000812F0E94A206F601E00FF11DF082812FB1
:100F30000E94DA040F5F1D3301F78DE30E94DA048B
:100F40000E9474048D33E1F38DE30E94A20620E039
:100F500030E0F401E20FF31FD601A20FB31F90811E
:100F60008C91981731F42F5F3F4F2430310589F76A
:100F700040C020E030E0F401E20FF31FD601A20FE1
:100F8000B31F90818C919817C1F42F5F3F4F24308D
:100F9000310589F71DC020E030E0F301E20FF31FB7
:100FA000D501A20FB31F90818C91981731F42F5F58
:100FB0003F4F2430310589F70BC084E00E94A20620
:100FC00084E090E00E94FA04EA948E2D0E941B06B1
:100FD000EE2009F045CF2DCF85E00E94A20685E0E6
:100FE00090E00E94FA0480E061E00E94D20500E0F7
:100FF00084CF85E00E94A20685E090E00E94FA047A
:1010000018CF97FB092E07260AD077FD04D00CD005
:1010100006D000201AF4709561957F4F0895F6F779
:10102000909581959F4F0895AA1BBB1B51E107C066
:10103000AA1FBB1FA617B70710F0A61BB70B881F68
:10104000991F5A95A9F780959095BC01CD010895F7
:101050002F923F924F925F926F927F928F929F92C8
:10106000AF92BF92CF92DF92EF92FF920F931F93B6
:10107000CF93DF93CDB7DEB7CA1BDB0B0FB6F89467
:10108000DEBF0FBECDBF09942A88398848885F84A7
:101090006E847D848C849B84AA84B984C884DF8018
:1010A000EE80FD800C811B81AA81B981CE0FD11DFC
:1010B0000FB6F894DEBF0FBECDBFED010895FB0162
:1010C0009F01E8944230C4F04532B4F44A3029F428
:1010D00097FB1EF4909581959F4F642F77270E9470
:1010E0001408805D8A330CF0895D8193CB010097F1
:1010F000A1F716F45DE251931082C9010C948008A7
:10110000DC01FC01672F71917723E1F7329704C06E
:101110007C916D9370836291AE17BF07C8F30895F9
:04112000F894FFCF71
:10112400000000000000000000010203040506079F
:101134003738392F3435362A3132332D43303D2B6D
:00000001FF
