:100000000C942A000C943F000C943F000C943F0089
:100010000C943F000C943F000C943F000C943F0064
:100020000C943F000C943F000C943F000C943F0054
:100030000C943F000C943F000C943F000C943F0044
:100040000C943F000C943F000C943F000C943F0034
:100050000C943F0011241FBECFE5D8E0DEBFCDBF1A
:1000600011E0A0E6B0E0E8E9F3E302C005900D92EC
:10007000AC3DB107D9F70E944E100C94CA190C94EC
:100080000000EF92FF920F931F937B018C0120E001
:1000900030E040E05FE40E94ED0388238CF0C8016B
:1000A000B70120E030E040E05FE40E94B9010E9427
:1000B0004D049B01AC01205030404040504806C0E8
:1000C000C801B7010E944D049B01AC01B901CA01EE
:1000D0001F910F91FF90EF900895A0E0B0E0E3E74B
:1000E000F0E00C946219DC012B01FA019C91923032
:1000F00008F439C1EB018881823008F433C19430AF
:1001000069F4843009F02FC111969C91119789816F
:10011000981709F428C1A4EDB0E025C1843009F492
:1001200021C18230A9F4923009F01DC19A01AD01BC
:1001300088E0EA010990AE01E90109929E0181502F
:10014000C1F7E201898111969C918923818308C1BD
:10015000923009F407C112962D903C901397EB0151
:100160008A819B811496AD90BD90CD90DC901797BD
:10017000EC80FD800E811F819101281B390BB90194
:1001800037FF04C066277727621B730B6032710547
:100190000CF061C0121613066CF537014801062EEB
:1001A00004C096948794779467940A94D2F721E0D8
:1001B00030E040E050E004C0220F331F441F551FC1
:1001C0006A95D2F721503040404050402E213F21C7
:1001D00040235123211531054105510521F021E02E
:1001E00030E040E050E079018A01E628F72808294C
:1001F00019293CC0232BD1F1260E371E35014601AB
:10020000062E04C096948794779467940A94D2F744
:1002100021E030E040E050E004C0220F331F441FD3
:10022000551F6A95D2F721503040404050402A2156
:100230003B214C215D21211531054105510521F05E
:1002400021E030E040E050E059016A01A628B728DB
:10025000C828D9280BC0821593052CF01C01AA24AC
:10026000BB24650103C0EE24FF24870111969C91F5
:10027000D20111968C91981709F445C0992339F051
:10028000A80197012A193B094C095D0906C0A6017E
:1002900095012E193F09400B510B57FD08C01182E3
:1002A0003382228224833583468357831DC081E0B5
:1002B00081833382228288279927DC01821B930B5A
:1002C000A40BB50B84839583A683B7830DC0220F3F
:1002D000331F441F551F24833583468357838281F0
:1002E000938101979383828324813581468157814D
:1002F000DA01C9010197A109B1098F5F9F4FAF4F83
:10030000BF4328F30BC0918333822282EA0CFB1C8B
:100310000C1D1D1DE482F5820683178383E0808314
:10032000248135814681578157FF1AC0C901AA2708
:1003300097FDA095BA2F81709070A070B0705695FF
:10034000479537952795822B932BA42BB52B848328
:100350009583A683B7838281938101969383828359
:10036000DF0101C0D201CD01CDB7DEB7E2E10C94CF
:100370007E19A0E2B0E0EFEBF1E00C946E19698316
:100380007A838B839C832D833E834F835887E9E058
:10039000EE2EF12CEC0EFD1ECE010196B7010E944F
:1003A0003E068E010F5E1F4FCE010596B8010E94DA
:1003B0003E068A8991E089278A8BC701B801AE0180
:1003C000475E5F4F0E946D000E946905A096E6E0BF
:1003D0000C948A19A0E2B0E0E0EFF1E00C946E1901
:1003E00069837A838B839C832D833E834F835887D5
:1003F000F9E0EF2EF12CEC0EFD1ECE010196B701B7
:100400000E943E068E010F5E1F4FCE010596B80179
:100410000E943E06C701B801AE01475E5F4F0E94D1
:100420006D000E946905A096E6E00C948A19A0E28E
:10043000B0E0EDE1F2E00C94621969837A838B837A
:100440009C832D833E834F835887CE010196BE0146
:10045000675F7F4F0E943E06CE010596BE016F5E2C
:100460007F4F0E943E069985923088F089898230BC
:10047000C8F0943019F4823051F404C0843029F467
:10048000923081F484ED90E0C6C0923049F420E0CF
:100490009A858A89981321E02A87CE010996BBC0E4
:1004A000823049F420E09A858A89981321E02A8BCA
:1004B000CE014196B0C02D843E844F8458886D880B
:1004C0007E888F88988CEE24FF248701AA24BB2481
:1004D000650140E050E060E070E0E0E0F0E0C10184
:1004E00081709070892BE9F0E60CF71C081D191D2E
:1004F0009A01AB012A0D3B1D4C1D5D1D80E090E073
:10050000A0E0B0E0E614F7040805190520F481E046
:1005100090E0A0E0B0E0BA01A901480F591F6A1F9E
:100520007B1FAA0CBB1CCC1CDD1C97FE08C081E005
:1005300090E0A0E0B0E0A82AB92ACA2ADB2A3196C6
:10054000E032F10549F0660C771C881C991C569422
:10055000479437942794C3CFFA85EA892B893C893D
:100560008B859C85280F391F2E5F3F4F17C0CA010E
:1005700081709070892B61F016950795F794E79438
:1005800080E090E0A0E0B0E8E82AF92A0A2B1B2BD3
:1005900076956795579547952F5F3F4F77FDE7CF46
:1005A0000CC0440F551F661F771F17FD4160EE0CEE
:1005B000FF1C001F111F21503040403090E05907B0
:1005C00090E0690790E4790760F32B8F3C8FDB01A3
:1005D000CA018F779070A070B07080349105A1052A
:1005E000B10561F447FD0AC0E114F10401051105EC
:1005F00029F0405C5F4F6F4F7F4F40781A8EFE1797
:1006000011F081E08A8F4D8F5E8F6F8F78A383E02A
:10061000898FCE0149960E946905A096E2E10C946B
:100620007E19A8E1B0E0E7E1F3E00C946A19698370
:100630007A838B839C832D833E834F835887B9E0D5
:10064000EB2EF12CEC0EFD1ECE010196B7010E949F
:100650003E068E010F5E1F4FCE010596B8010E9427
:100660003E062985223008F47EC03989323010F4E4
:10067000B8017CC08A859A8989278A87243011F03D
:10068000223031F4231709F06EC064ED70E06EC0C3
:10069000343039F41D861E861F86188A1C861B86F8
:1006A00004C0323021F484E08987B7015FC02B8514
:1006B0003C858B899C89281B390B3C872B87ED84D3
:1006C000FE840F851889AD88BE88CF88D88CEA143F
:1006D000FB040C051D0540F4EE0CFF1C001F111F50
:1006E000215030403C872B8720E030E040E050E054
:1006F00080E090E0A0E0B0E460E070E0EA14FB0489
:100700000C051D0540F0282B392B4A2B5B2BEA18D2
:10071000FB080C091D09B695A79597958795EE0CD2
:10072000FF1C001F111F6F5F7F4F6F31710531F785
:10073000DA01C9018F779070A070B0708034910594
:10074000A105B10561F427FD0AC0E114F10401051A
:10075000110529F0205C3F4F4F4F5F4F20782D87C8
:100760003E874F87588BBE01675F7F4FCB010E944A
:1007700069056896EAE00C948619A8E1B0E0E3EC1C
:10078000F3E00C946E1969837A838B839C832D83A9
:100790003E834F83588789E0E82EF12CEC0EFD1E36
:1007A000CE010196B7010E943E068E010F5E1F4FDB
:1007B000CE010596B8010E943E068985823040F040
:1007C0008989823028F0C701B8010E94B60601C0AD
:1007D0008FEF6896E6E00C948A19A8E1B0E0E3EFA9
:1007E000F3E00C946E1969837A838B839C832D8349
:1007F0003E834F83588789E0E82EF12CEC0EFD1ED6
:10080000CE010196B7010E943E068E010F5E1F4F7A
:10081000CE010596B8010E943E068985823040F0DF
:100820008989823028F0C701B8010E94B60601C04C
:100830008FEF6896E6E00C948A19A8E1B0E0E3E255
:10084000F4E00C946E1969837A838B839C832D83E7
:100850003E834F83588789E0E82EF12CEC0EFD1E75
:10086000CE010196B7010E943E068E010F5E1F4F1A
:10087000CE010596B8010E943E068985823040F07F
:100880008989823028F0C701B8010E94B60601C0EC
:1008900081E06896E6E00C948A19ACE0B0E0E3E50C
:1008A000F4E00C94721969837A838B839C83CE0164
:1008B0000196BE016B5F7F4F0E943E068D818230A4
:1008C00061F1823050F1843021F48E81882351F11E
:1008D0002EC02F81388537FD20C06E812F31310524
:1008E0001CF06623F9F023C08EE190E0821B930B8D
:1008F00029853A854B855C8504C056954795379583
:1009000027958A95D2F76623B1F05095409530959A
:1009100021953F4F4F4F5F4F0EC020E030E040E049
:1009200050E009C02FEF3FEF4FEF5FE704C020E03A
:1009300030E040E050E8B901CA012C96E2E00C94A6
:100940008E19A8E0B0E0E7EAF4E00C946A197B01A4
:100950008C01611571058105910519F482E0898387
:1009600060C083E089838EE1C82ED12CDC82CB82EB
:10097000ED82FE820F831887C801B7010E941A0515
:10098000FC013197F7FF3BC0222733272E1B3F0B7B
:1009900057016801022E04C0D694C794B794A79457
:1009A0000A94D2F740E050E060E070E081E090E02F
:1009B000A0E0B0E004C0880F991FAA1FBB1F2A95B2
:1009C000D2F70197A109B1098E219F21A023B1235C
:1009D0000097A105B10521F041E050E060E070E032
:1009E0004A295B296C297D294D835E836F83788733
:1009F0008EE190E08E1B9F0B9C838B8312C03097FF
:100A000081F00E2E04C0EE0CFF1C001F111F0A9473
:100A1000D2F7ED82FE820F831887CE1ADF0ADC82BE
:100A2000CB821A82CE0101960E9469052896EAE0DF
:100A30000C948619EF92FF920F931F937B018C0108
:100A400080E0E81680E0F80681E0080780E01807FB
:100A500088F48FEFE816F1040105110531F028F054
:100A600088E090E0A0E0B0E017C080E090E0A0E077
:100A7000B0E012C080E0E81680E0F80680E00807E9
:100A800081E0180728F088E190E0A0E0B0E004C021
:100A900080E190E0A0E0B0E020E230E040E050E013
:100AA000281B390B4A0B5B0B04C016950795F7946E
:100AB000E7948A95D2F7F701E452FF4F8081281B13
:100AC000310941095109C9011F910F91FF90EF9020
:100AD0000895DF92EF92FF920F931F93FC01E48041
:100AE000F58006811781D1808081823048F480E0D2
:100AF00090E0A0E1B0E0E82AF92A0A2B1B2BA5C060
:100B0000843009F49FC0823021F4EE24FF24870151
:100B100005C0E114F1040105110519F4E0E0F0E06D
:100B200096C0628173819FEF623879070CF05BC0D9
:100B300022E83FEF261B370B2A3131052CF020E04D
:100B400030E040E050E02AC0B801A701022E04C006
:100B500076956795579547950A94D2F781E090E08E
:100B6000A0E0B0E004C0880F991FAA1FBB1F2A9500
:100B7000D2F70197A109B1098E219F21A023B123AA
:100B80000097A105B10521F081E090E0A0E0B0E080
:100B90009A01AB01282B392B4A2B5B2BDA01C901B7
:100BA0008F779070A070B07080349105A105B10569
:100BB00039F427FF09C0205C3F4F4F4F5F4F04C0FF
:100BC000215C3F4F4F4F5F4FE0E0F0E02030A0E06E
:100BD0003A07A0E04A07A0E45A0710F0E1E0F0E08D
:100BE00079018A0127C06038710564F5FB01E1587D
:100BF000FF4FD801C7018F779070A070B07080341C
:100C00009105A105B10539F4E7FE0DC080E490E03F
:100C1000A0E0B0E004C08FE390E0A0E0B0E0E80E18
:100C2000F91E0A1F1B1F17FF05C016950795F7949D
:100C3000E794319687E016950795F794E7948A959F
:100C4000D1F705C0EE24FF248701EFEFF0E06E2F0F
:100C5000679566276795902F9F77D794DD24D79463
:100C60008E2F8695492F462B582F5D29B701CA0133
:100C70001F910F91FF90EF90DF900895FC01DB0131
:100C8000408151812281622F6F7770E0221F2227DD
:100C9000221F9381892F880F822B282F30E0991FE4
:100CA0009927991F11969C93119721153105A9F544
:100CB000411551056105710511F482E037C082E8E4
:100CC0009FEF13969C938E9312979A01AB0167E066
:100CD000220F331F441F551F6A95D1F783E08C9371
:100CE0000DC0220F331F441F551F12968D919C91EA
:100CF0001397019713969C938E931297203080E060
:100D0000380780E0480780E4580758F314962D937D
:100D10003D934D935C93179708952F3F310579F4D8
:100D2000411551056105710519F484E08C9308950E
:100D300064FF03C081E08C9312C01C9210C02F5737
:100D4000304013963C932E93129783E08C9387E068
:100D5000440F551F661F771F8A95D1F7706414964C
:100D60004D935D936D937C93179708951F93DC01CA
:100D7000FB019C91923008F447C08081823008F4D6
:100D800043C0943051F411961C91843099F58181BF
:100D9000682F70E0611B71093FC0843021F09230F0
:100DA00031F48230B9F18181882389F12DC0119607
:100DB0001C9111978230F1F081811817D9F41296A5
:100DC0002D913C911397828193818217930794F020
:100DD00028173907BCF014968D919D910D90BC9108
:100DE000A02D2481358146815781281739074A076C
:100DF0005B0718F4112341F00AC082179307A40778
:100E0000B50740F4112319F061E070E005C06FEF01
:100E10007FEF02C060E070E0CB011F910895DF9387
:100E2000CF93CDB7DEB7E7E2F0E01082A7E2B0E003
:100E3000E7E2F0E080818C93E6E2F0E01082A6E247
:100E4000B0E0E6E2F0E0808180618C93A6E2B0E061
:100E5000E6E2F0E0808186608C93A6E2B0E0E6E214
:100E6000F0E0808180688C93CF91DF910895DF93CB
:100E7000CF930F92CDB7DEB78983A7E2B0E0E7E268
:100E8000F0E08081807E8C93A7E2B0E0E7E2F0E0C2
:100E900090818981892B8C93A6E2B0E0E6E2F0E0B4
:100EA000808180648C93E6E2F0E0808182958F708F
:100EB000882F90E0817090700097A9F3A6E2B0E0CF
:100EC000E6E2F0E0808180618C93E4E2F0E08081F2
:100ED00091810F90CF91DF910895DF93CF9300D050
:100EE00000D000D0CDB7DEB79E838D838D819E81EB
:100EF000CC01A0E0B0E0BC01CD010E94A104DC0166
:100F0000CB01BC01CD0120E030E040E854E40E9478
:100F10001103DC01CB01BC01CD0120E030E040EA4F
:100F200050E40E941702DC01CB0189839A83AB83D2
:100F3000BC8389819A81AB81BC81BC01CD0126969D
:100F40000FB6F894DEBF0FBECDBFCF91DF910895ED
:100F5000DF93CF9300D000D0CDB7DEB789836A830B
:100F60008981282F30E03C832B838B819C818130C9
:100F70009105D1F02B813C81223031052CF48B81FD
:100F80009C81009761F01EC02B813C81223031058D
:100F900081F08B819C818330910581F013C0EAE35D
:100FA000F0E08A8180830EC0E7E3F0E08A818083ED
:100FB00009C0E4E3F0E08A81808304C0E1E3F0E06B
:100FC0008A8180830F900F900F900F90CF91DF91C7
:100FD0000895DF93CF9300D000D0CDB7DEB78983DB
:100FE0006A838981282F30E03C832B838B819C810D
:100FF00081309105D1F02B813C81223031052CF4D8
:101000008B819C81009761F01EC02B813C81223036
:10101000310581F08B819C818330910581F013C073
:10102000EBE3F0E08A8180830EC0E8E3F0E08A81A0
:10103000808309C0E5E3F0E08A81808304C0E2E3B5
:10104000F0E08A8180830F900F900F900F90CF91E6
:10105000DF910895DF93CF93CDB7DEB727970FB613
:10106000F894DEBF0FBECDBF89836A834B838B812B
:10107000813009F06FC08981282F30E03F832E83B3
:101080008E819F818130910549F12E813F812230EF
:1010900031052CF48E819F81009761F0D2C02E81A2
:1010A0003F812230310571F18E819F81833091051E
:1010B000E9F1C7C0AAE3B0E0EAE3F0E08081482F9D
:1010C0008A81282F30E081E090E0022E02C0880F54
:1010D000991F0A94E2F7842B8C93B3C0A7E3B0E086
:1010E000E7E3F0E08081482F8A81282F30E081E01B
:1010F00090E0022E02C0880F991F0A94E2F7842B19
:101100008C939FC0A4E3B0E0E4E3F0E08081482F3B
:101110008A81282F30E081E090E0022E02C0880F03
:10112000991F0A94E2F7842B8C938BC0A1E3B0E063
:10113000E1E3F0E08081482F8A81282F30E081E0D0
:1011400090E0022E02C0880F991F0A94E2F7842BC8
:101150008C9377C08B81882309F073C08981282FF5
:1011600030E03D832C838C819D818130910559F144
:101170002C813D81223031052CF48C819D8100979A
:1011800069F05FC02C813D812230310589F18C816D
:101190009D818330910509F440C053C0AAE3B0E0BB
:1011A000EAE3F0E08081482F8A81282F30E081E057
:1011B00090E0022E02C0880F991F0A94E2F78095F2
:1011C00084238C933EC0A7E3B0E0E7E3F0E08081A6
:1011D000482F8A81282F30E081E090E0022E02C063
:1011E000880F991F0A94E2F7809584238C9329C075
:1011F000A4E3B0E0E4E3F0E08081482F8A81282F67
:1012000030E081E090E0022E02C0880F991F0A941E
:10121000E2F7809584238C9314C0A1E3B0E0E1E36E
:10122000F0E08081482F8A81282F30E081E090E033
:10123000022E02C0880F991F0A94E2F7809584233A
:101240008C9327960FB6F894DEBF0FBECDBFCF911B
:10125000DF910895DF93CF93CDB7DEB729970FB60F
:10126000F894DEBF0FBECDBF89836A834B838B8129
:10127000813009F06FC08981282F30E039872887B5
:10128000888599858130910549F1288539852230F5
:1012900031052CF488859985009761F045C1288532
:1012A00039852230310571F1888599858330910522
:1012B000E9F13AC1ABE3B0E0EBE3F0E08081482F25
:1012C0008A81282F30E081E090E0022E02C0880F52
:1012D000991F0A94E2F7842B8C9326C1A8E3B0E00F
:1012E000E8E3F0E08081482F8A81282F30E081E018
:1012F00090E0022E02C0880F991F0A94E2F7842B17
:101300008C9312C1A5E3B0E0E5E3F0E08081482FC3
:101310008A81282F30E081E090E0022E02C0880F01
:10132000991F0A94E2F7842B8C93FEC0A2E3B0E0ED
:10133000E2E3F0E08081482F8A81282F30E081E0CD
:1013400090E0022E02C0880F991F0A94E2F7842BC6
:101350008C93EAC08B81882309F074C08981282F7F
:1013600030E03F832E838E819F818130910559F13A
:101370002E813F81223031052CF48E819F81009790
:1013800069F0D2C02E813F812230310589F18E81F2
:101390009F818330910509F440C0C6C0ABE3B0E043
:1013A000EBE3F0E08081482F8A81282F30E081E054
:1013B00090E0022E02C0880F991F0A94E2F78095F0
:1013C00084238C93B1C0A8E3B0E0E8E3F0E080812F
:1013D000482F8A81282F30E081E090E0022E02C061
:1013E000880F991F0A94E2F7809584238C939CC000
:1013F000A5E3B0E0E5E3F0E08081482F8A81282F63
:1014000030E081E090E0022E02C0880F991F0A941C
:10141000E2F7809584238C9387C0A2E3B0E0E2E3F7
:10142000F0E08081482F8A81282F30E081E090E031
:10143000022E02C0880F991F0A94E2F78095842338
:101440008C9372C08B81823009F06EC08981282F05
:1014500030E03D832C838C819D818130910549F161
:101460002C813D81223031052CF48C819D810097A7
:1014700061F05AC02C813D812230310571F18C819F
:101480009D8183309105E9F14FC0ABE3B0E0EBE320
:10149000F0E08081482F8A81282F30E081E090E0C1
:1014A000022E02C0880F991F0A94E2F784278C93BA
:1014B0003BC0A8E3B0E0E8E3F0E08081482F8A81F8
:1014C000282F30E081E090E0022E02C0880F991FA3
:1014D0000A94E2F784278C9327C0A5E3B0E0E5E304
:1014E000F0E08081482F8A81282F30E081E090E071
:1014F000022E02C0880F991F0A94E2F784278C936A
:1015000013C0A2E3B0E0E2E3F0E08081482F8A81DB
:10151000282F30E081E090E0022E02C0880F991F52
:101520000A94E2F784278C9329960FB6F894DEBFCD
:101530000FBECDBFCF91DF910895DF93CF9300D041
:1015400000D00F92CDB7DEB78A836B838A81282FB4
:1015500030E03D832C834C815D814130510541F168
:101560008C819D818230910534F42C813D8121153F
:10157000310561F052C04C815D814230510551F11D
:101580008C819D8183309105B9F147C0E9E3F0E09A
:101590008081282F30E08B81882F90E0A90102C044
:1015A000559547958A95E2F7CA018170898335C0C0
:1015B000E6E3F0E08081282F30E08B81882F90E0F7
:1015C000A90102C0559547958A95E2F7CA01817035
:1015D000898323C0E3E3F0E08081282F30E08B8112
:1015E000882F90E0A90102C0559547958A95E2F7AA
:1015F000CA018170898311C0E0E3F0E08081282F67
:1016000030E08B81882F90E0A90102C05595479565
:101610008A95E2F7CA018170898389810F900F90C2
:101620000F900F900F90CF91DF910895DF93CF939C
:10163000CDB7DEB72F970FB6F894DEBF0FBECDBF84
:101640008F8783E062E040E00E942A0983E063E044
:1016500040E00E942A0982E06F850E94E90783E04A
:1016600064E041E00E942A0980E090E0A0E0B0E45C
:101670008B879C87AD87BE876B857C858D859E8596
:1016800020E030E04AEF54E40E941702DC01CB0175
:101690008F839887A987BA876F81788589859A858E
:1016A00020E030E040E85FE30E941D0488232CF432
:1016B00081E090E09E838D833FC06F81788589852E
:1016C0009A8520E03FEF4FE757E40E94BD031816CC
:1016D0004CF56B857C858D859E8520E030E040E271
:1016E00051E40E941702DC01CB01BC01CD010E9434
:1016F0004100DC01CB019E838D830FC088EC90E01C
:101700009C838B838B819C810197F1F79C838B83D6
:101710008D819E8101979E838D838D819E8100970F
:1017200069F714C06F81788589859A850E94410088
:10173000DC01CB019E838D838D819E819A83898379
:1017400089819A810197F1F79A83898383E064E024
:1017500040E00E942A092F960FB6F894DEBF0FBE14
:10176000CDBFCF91DF910895DF93CF93CDB7DEB793
:101770002F970FB6F894DEBF0FBECDBF8F8783E0E3
:1017800062E041E00E942A0983E063E040E00E94B9
:101790002A0982E06F850E94E90783E064E041E066
:1017A0000E942A0980E090E0A0E0B0E48B879C874B
:1017B000AD87BE876B857C858D859E8520E030E07A
:1017C0004AEF54E40E941702DC01CB018F83988713
:1017D000A987BA876F81788589859A8520E030E06E
:1017E00040E85FE30E941D0488232CF481E090E030
:1017F0009E838D833FC06F81788589859A8520E09F
:101800003FEF4FE757E40E94BD0318164CF56B8578
:101810007C858D859E8520E030E040E251E40E9489
:101820001702DC01CB01BC01CD010E944100DC01AB
:10183000CB019E838D830FC088EC90E09C838B83CB
:101840008B819C810197F1F79C838B838D819E8195
:1018500001979E838D838D819E81009769F714C0C7
:101860006F81788589859A850E944100DC01CB01D2
:101870009E838D838D819E819A83898389819A81BC
:101880000197F1F79A83898383E064E040E00E9446
:101890002A092F960FB6F894DEBF0FBECDBFCF91A9
:1018A000DF910895DF93CF93CDB7DEB72E970FB6B4
:1018B000F894DEBF0FBECDBF80E090E0ACE0B2E4B4
:1018C0008B879C87AD87BE876B857C858D859E8544
:1018D00020E030E04AEF54E40E941702DC01CB0123
:1018E0008F839887A987BA876F81788589859A853C
:1018F00020E030E040E85FE30E941D0488232CF4E0
:1019000081E090E09E838D833FC06F8178858985DB
:101910009A8520E03FEF4FE757E40E94BD03181679
:101920004CF56B857C858D859E8520E030E040E21E
:1019300051E40E941702DC01CB01BC01CD010E94E1
:101940004100DC01CB019E838D830FC088EC90E0C9
:101950009C838B838B819C810197F1F79C838B8384
:101960008D819E8101979E838D838D819E810097BD
:1019700069F714C06F81788589859A850E94410036
:10198000DC01CB019E838D838D819E819A83898327
:1019900089819A810197F1F79A8389838CE30E9468
:1019A000160B8CE00E94160B81E00E94160B2E96FF
:1019B0000FB6F894DEBF0FBECDBFCF91DF91089573
:1019C000DF93CF9300D00F92CDB7DEB79B838A838E
:1019D00019820EC08981282F30E08A819B81FC0109
:1019E000E20FF31F80810E94B40B89818F5F89838E
:1019F0008981282F30E08A819B81FC01E20FF31F4F
:101A00008081882339F70F900F900F90CF91DF914D
:101A10000895DF93CF9300D0CDB7DEB79A83898343
:101A200089819A81992354F089819A818A3091051C
:101A30002CF48981805D0E94B40B71C089819A81E8
:101A400028ED813F92077CF089819A8199235CF48B
:101A50008DE20E94B40B89819A81909581959F4F68
:101A60000E94090D5CC089819A818A309105CCF071
:101A700089819A8184369105A4F489819A812AE02A
:101A800030E0B9010E943B19CB010E94090D898108
:101A90009A812AE030E0B9010E943B190E94090DA9
:101AA0003EC089819A8184369105D4F089819A81DA
:101AB00023E0883E9207A4F489819A812AE030E0ED
:101AC000B9010E943B19CB010E94090D89819A81BD
:101AD0002AE030E0B9010E943B190E94090D1FC0A5
:101AE00089819A8123E0883E9207CCF089819A818E
:101AF00027E2803192079CF489819A812AE030E0C4
:101B0000B9010E943B19CB010E94090D89819A817C
:101B10002AE030E0B9010E943B190E94090D0F90A4
:101B20000F90CF91DF9108950F931F93DF93CF9381
:101B300000D000D0CDB7DEB769837A838B839C83D6
:101B400069817A818B819C810E944D04DC01CB01EB
:101B50000E94090D8EE20E94B40B69817A818B810B
:101B60009C8120E030E040E251E40E941702DC0159
:101B7000CB01BC01CD010E944D04DC01CB018C01E5
:101B800069817A818B819C810E944D04DC01CB01AB
:101B90009C01C801B9010E943B19181619061CF5D1
:101BA00069817A818B819C8120E030E040E251E4C0
:101BB0000E941702DC01CB01BC01CD010E944D0443
:101BC000DC01CB018C0169817A818B819C810E942F
:101BD0004D04DC01CB019C01C801B9010E943B19F5
:101BE0000E94090D25C069817A818B819C8120E04A
:101BF00030E040E251EC0E941702DC01CB01BC0155
:101C0000CD010E944D04DC01CB018C0189819A81B8
:101C1000AB81BC81B058BC01CD010E944D04DC01F8
:101C2000CB019C01C801B9010E943B190E94090D1A
:101C30000F900F900F900F90CF91DF911F910F9108
:101C40000895DF93CF93CDB7DEB7A2970FB6F89480
:101C5000DEBF0FBECDBF9AA389A389A19AA19E0121
:101C60002F5F3F4FB9014AE050E00E949919CE0121
:101C700001960E94E00CA2960FB6F894DEBF0FBE4C
:101C8000CDBFCF91DF910895DF93CF93CDB7DEB76E
:101C900082E06FEF0E94A80783E062E041E00E94CB
:101CA0002A0883E063E041E00E942A0883E064E0C0
:101CB00041E00E942A08CF91DF910895DF93CF93EE
:101CC00000D00F92CDB7DEB78A836B838B818823D8
:101CD00019F48A81898306C08B81813019F48A8145
:101CE000805C8983898180580E94160B0F900F9029
:101CF0000F90CF91DF910895DF93CF93CDB7DEB7EB
:101D000027970FB6F894DEBF0FBECDBF9C838B83A1
:101D10006D834E832F838D81882F90E0880F991FCC
:101D2000880F991F880F991F8A838A81805C0E947F
:101D3000160B19820EC08981282F30E08B819C817F
:101D4000FC01E20FF31F80810E94B40B89818F5F39
:101D500089838981883078F38E816F810E945E0E3D
:101D60008D810E94B40B27960FB6F894DEBF0FBE8C
:101D7000CDBFCF91DF910895DF93CF93CDB7DEB77D
:101D80002E970FB6F894DEBF0FBECDBF80E00E9445
:101D900037079E878D878D859E850E946D07DC01A4
:101DA000CB0189879A87AB87BC8769857A858B85C4
:101DB0009C8520E030E04AE754E40E941702DC01F1
:101DC000CB018D839E83AF83B8876D817E818F81A8
:101DD000988520E030E040E251E40E941103DC01EC
:101DE000CB0189839A83AB83BC8389819A81AB8140
:101DF000BC81BC01CD012E960FB6F894DEBF0FBE9C
:101E0000CDBFCF91DF910895DF93CF93CDB7DEB7EC
:101E100083E065E041E00E942A080E949D0FCF9177
:101E2000DF910895DF93CF93CDB7DEB760970FB6FC
:101E3000F894DEBF0FBECDBF988B8F878F859889B2
:101E40000E94EF0F80E090E0A0E8BFE38B879C87C3
:101E5000AD87BE876B857C858D859E8520E030E0D3
:101E60004AEF54E40E941702DC01CB018F8398876C
:101E7000A987BA876F81788589859A8520E030E0C7
:101E800040E85FE30E941D0488232CF481E090E089
:101E90009E838D833FC06F81788589859A8520E0F8
:101EA0003FEF4FE757E40E94BD0318164CF56B85D2
:101EB0007C858D859E8520E030E040E251E40E94E3
:101EC0001702DC01CB01BC01CD010E944100DC0105
:101ED000CB019E838D830FC088EC90E09C838B8325
:101EE0008B819C810197F1F79C838B838D819E81EF
:101EF00001979E838D838D819E81009769F714C021
:101F00006F81788589859A850E944100DC01CB012B
:101F10009E838D838D819E819A83898389819A8115
:101F20000197F1F79A83898360960FB6F894DEBF24
:101F30000FBECDBFCF91DF910895DF93CF93CDB783
:101F4000DEB7AFE4B0E0EFE4F0E080818F7B8C930C
:101F5000AFE4B0E0EFE4F0E0808180688C93AFE420
:101F6000B0E0EFE4F0E080818E7F8C93AFE4B0E0EE
:101F7000EFE4F0E0808182608C93AEE4B0E0EEE4C8
:101F8000F0E0808188608C93AEE4B0E0EEE4F0E0B5
:101F9000808180618C93AEE4B0E0EEE4F0E080817B
:101FA0008E7F8C93AEE4B0E0EEE4F0E0808182605E
:101FB0008C93AEE4B0E0EEE4F0E080818B7F8C9314
:101FC000E6E4F0E080E29EE491838083EAE4F0E0DE
:101FD0008EEE92E091838083CF91DF910895DF931D
:101FE000CF9300D0CDB7DEB79A838983EAE4F0E0DF
:101FF00089819A81918380830F900F90CF91DF9197
:102000000895DF93CF93CDB7DEB7AAE2B0E0EAE25E
:10201000F0E080818B7F8C93E0E4F0E086E88083C1
:10202000E9E2F0E083E38083AAE2B0E0EAE2F0E0F4
:10203000808180618C93AAE2B0E0EAE2F0E08081E6
:1020400088608C93CF91DF910895DF93CF930F92A7
:10205000CDB7DEB78983EBE2F0E08081829586958B
:102060008770882F90E0817090700097A1F3ECE268
:10207000F0E0898180830F90CF91DF910895DF9305
:10208000CF93CDB7DEB7EBE2F0E080818823DCF7B9
:10209000ECE2F0E08081CF91DF9108950F931F93E0
:1020A000DF93CF93CDB7DEB7C958D0400FB6F894C1
:1020B000DEBF0FBECDBFFE01E558FF4F82E080833B
:1020C000FE01E658FF4F108281E06FEF0E94A807E3
:1020D00081E060E00E94E90780E062E041E00E9468
:1020E0002A080E94040F0E940F070E94440E0E94BB
:1020F000520C0E940110FE01E558FF4F82E08083E0
:10210000DBC08BED95E00E94120F0E943F10FE0194
:10211000E558FF4F8083FE01E558FF4F80818330F3
:1021200009F0CAC080E060E00E945E0E80E690E0A8
:102130000E94E00C82E061E00E945E0E81E790E088
:102140000E94E00CFE01E359FF4F80E090E4ACE90F
:10215000B5E480839183A283B3838E0107591F4F17
:10216000FE01E359FF4F608171818281938120E0FC
:1021700030E04AEF54E40E941702DC01CB01F80181
:1021800080839183A283B383FE01E759FF4F60816F
:1021900071818281938120E030E040E85FE30E941A
:1021A0001D04882344F4FE01E959FF4F81E090E0CB
:1021B0009183808364C0FE01E759FF4F6081718184
:1021C0008281938120E03FEF4FE757E40E94BD03F7
:1021D00018160CF043C0FE01E359FF4F6081718176
:1021E0008281938120E030E040E251E40E941702B6
:1021F000DC01CB018E0109591F4FBC01CD010E94AA
:102200004100DC01CB01F801918380831FC0FE01F6
:10221000EB59FF4F88EC90E091838083FE01EB59EE
:10222000FF4F808191810197F1F7FE01EB59FF4F3C
:1022300091838083DE01A959BF4FFE01E959FF4F09
:1022400080819181019711969C938E93FE01E959AB
:10225000FF4F808191810097D1F627C08E010959E7
:102260001F4FFE01E759FF4F608171818281938189
:102270000E944100DC01CB01F80191838083DE01E3
:10228000AD59BF4FFE01E959FF4F808191818D9378
:102290009C93FE01ED59FF4F808191810197F1F7E9
:1022A000FE01ED59FF4F9183808381E00E94160B60
:1022B000FE01E558FF4F1082FE01E558FF4F808177
:1022C000823009F41ECF61C48DE30E94251081E0A5
:1022D0000E94160B8BED95E00E94120F80E060E0EB
:1022E0000E945E0E8DE790E00E94E00CFE01E75830
:1022F000FF4F1082FE01E858FF4F1082FE01E9589F
:10230000FF4F108227C00E943F10FE01E958FF4F87
:102310008083FE01E958FF4F80818033D8F0FE01B1
:10232000E958FF4F80818A33A8F4FE01E758FF4F38
:102330008081843078F4FE01E958FF4F80810E944B
:10234000B40BDE01A758BF4FFE01E758FF4F808155
:102350008F5F8C93FE01E958FF4F80818D3399F692
:102360000E943F10FE01E958FF4F8083FE01E958AB
:10237000FF4F8081853009F0F6C280E061E00E9465
:102380005E0E83E890E00E94E00CF0C00E943F10D7
:10239000FE01E958FF4F8083FE01E858FF4F80811E
:1023A000843008F0E3C0FE01E958FF4F808180339C
:1023B00008F4DCC0FE01E958FF4F80818A3308F041
:1023C000D5C0FE01E858FF4F8081875F61E00E9421
:1023D0005E0EFE01E958FF4F80810E94B40BFE01A2
:1023E000E15AFF4F80E090E0A8ECB2E48083918353
:1023F000A283B3838E01055A1F4FFE01E15AFF4F9E
:10240000608171818281938120E030E04AEF54E461
:102410000E941702DC01CB01F80180839183A28323
:10242000B383FE01E55AFF4F608171818281938100
:1024300020E030E040E85FE30E941D04882344F47C
:10244000FE01E75AFF4F81E090E09183808364C0F2
:10245000FE01E55AFF4F608171818281938120E006
:102460003FEF4FE757E40E94BD0318160CF043C03E
:10247000FE01E15AFF4F608171818281938120E0EA
:1024800030E040E251E40E941702DC01CB018E01F2
:10249000075A1F4FBC01CD010E944100DC01CB0156
:1024A000F801918380831FC0FE01E95AFF4F88EC39
:1024B00090E091838083FE01E95AFF4F80819181F2
:1024C0000197F1F7FE01E95AFF4F91838083DE0106
:1024D000A75ABF4FFE01E75AFF4F808191810197B4
:1024E00011969C938E93FE01E75AFF4F8081918154
:1024F0000097D1F627C08E01075A1F4FFE01E55AFB
:10250000FF4F60817181828193810E944100DC01D3
:10251000CB01F80191838083DE01AB5ABF4FFE01EE
:10252000E75AFF4F808191818D939C93FE01EB5A76
:10253000FF4F808191810197F1F7FE01EB5AFF4F28
:1025400091838083FE01E858FF4F8081875F61E0BF
:102550000E945E0E8AE20E94B40BDE01A858BF4FB3
:10256000FE01E858FF4F80818F5F8C93FE01E95890
:10257000FF4F80818D3309F009CF0E943F10FE018B
:10258000E958FF4F8083FE01E958FF4F8081853075
:1025900009F0C7C081E00E94160B85E060E00E9450
:1025A0005E0E8DE890E00E94E00CFE01EF5AFF4FB6
:1025B00080E090E0AAE7B4E480839183A283B383B0
:1025C0008E01035B1F4FFE01EF5AFF4F6081718147
:1025D0008281938120E030E04AEF54E40E941702A8
:1025E000DC01CB01F80180839183A283B383FE01D8
:1025F000E35BFF4F608171818281938120E030E055
:1026000040E85FE30E941D04882344F4FE01E55B7B
:10261000FF4F81E090E09183808364C0FE01E35B23
:10262000FF4F608171818281938120E03FEF4FE70E
:1026300057E40E94BD0318160CF043C0FE01EF5A88
:10264000FF4F608171818281938120E030E040E220
:1026500051E40E941702DC01CB018E01055B1F4F84
:10266000BC01CD010E944100DC01CB01F801918346
:1026700080831FC0FE01E75BFF4F88EC90E09183F1
:102680008083FE01E75BFF4F808191810197F1F725
:10269000FE01E75BFF4F91838083DE01A55BBF4FA7
:1026A000FE01E55BFF4F80819181019711969C931C
:1026B0008E93FE01E55BFF4F808191810097D1F6FB
:1026C00027C08E01055B1F4FFE01E35BFF4F60815A
:1026D0007181828193810E944100DC01CB01F8016C
:1026E00091838083DE01A95BBF4FFE01E55BFF4F55
:1026F000808191818D939C93FE01E95BFF4F8081E6
:1027000091810197F1F7FE01E95BFF4F918380838F
:1027100081E00E94160BFE01E558FF4F81E08083A7
:1027200034C2FE01E958FF4F8081843009F02DC288
:10273000DE01A658BF4FFE01E658FF4F80818F5F34
:102740008C9381E00E94160B80E060E00E945E0E98
:1027500085E990E00E94E00CFE01ED5BFF4F80E018
:1027600090E0A6E9B3E480839183A283B3838E01D2
:10277000015C1F4FFE01ED5BFF4F60817181828123
:10278000938120E030E04AEF54E40E941702DC011C
:10279000CB01F80180839183A283B383FE01FF966E
:1027A000608171818281938120E030E040E85FE3C5
:1027B0000E941D0488232CF481E090E09EAF8DAF31
:1027C00046C0FE01FF96608171818281938120E085
:1027D0003FEF4FE757E40E94BD03181664F5FE0172
:1027E000ED5BFF4F608171818281938120E030E059
:1027F00040E251E40E941702DC01CB01BC01CD0193
:102800000E944100DC01CB019EAF8DAF0FC088EC70
:1028100090E09CAF8BAF8BAD9CAD0197F1F79CAF77
:102820008BAF8DAD9EAD01979EAF8DAF8DAD9EAD43
:10283000009769F716C0FE01FF9660817181828161
:1028400093810E944100DC01CB019EAF8DAF8DAD25
:102850009EAD9AAF89AF89AD9AAD0197F1F79AAF66
:1028600089AFFE01E658FF4F8081833008F08DC1AB
:1028700084E061E00E945E0E84EA90E00E94E00C39
:1028800080E090E0AAE7B4E48DAB9EABAFABB8AF0D
:102890006DA97EA98FA998AD20E030E04AEF54E4FD
:1028A0000E941702DC01CB0189AB9AABABABBCAB8E
:1028B00069A97AA98BA99CA920E030E040E85FE3F0
:1028C0000E941D0488232CF481E090E098AB8FA730
:1028D0003FC069A97AA98BA99CA920E03FEF4FE7E7
:1028E00057E40E94BD0318164CF56DA97EA98FA967
:1028F00098AD20E030E040E251E40E941702DC0194
:10290000CB01BC01CD010E944100DC01CB0198ABA1
:102910008FA70FC088EC90E09EA78DA78DA59EA5E0
:102920000197F1F79EA78DA78FA598A9019798AB5E
:102930008FA78FA598A9009769F727C169A97AA9D8
:102940008BA99CA90E944100DC01CB0198AB8FA709
:102950008FA598A99CA78BA78BA59CA50197F1F79C
:102960009CA78BA712C1FE01E958FF4F80818430DC
:1029700009F00BC184E090E00E94090DDE01A65829
:10298000BF4FFE01E658FF4F80818F5F8C9381E03F
:102990000E94160B80E060E00E945E0E8EEA90E0DE
:1029A0000E94E00C80E090E0A6E9B3E48FA398A732
:1029B000A9A7BAA76FA178A589A59AA520E030E0BC
:1029C0004AEF54E40E941702DC01CB018BA39CA3C5
:1029D000ADA3BEA36BA17CA18DA19EA120E030E0A0
:1029E00040E85FE30E941D0488232CF481E090E01E
:1029F0009AA389A33FC06BA17CA18DA19EA120E0D9
:102A00003FEF4FE757E40E94BD0318164CF56FA146
:102A100078A589A59AA520E030E040E251E40E9423
:102A20001702DC01CB01BC01CD010E944100DC0199
:102A3000CB019AA389A30FC088EC90E098A38F8F55
:102A40008F8D98A10197F1F798A38F8F89A19AA1F3
:102A500001979AA389A389A19AA1009769F714C045
:102A60006BA17CA18DA19EA10E944100DC01CB0144
:102A70009AA389A389A19AA19E8F8D8F8D8D9E8DFA
:102A80000197F1F79E8F8D8FFE01E658FF4F8081F1
:102A9000833008F07AC084E061E00E945E0E84EA30
:102AA00090E00E94E00C80E090E0AAE7B4E4898F17
:102AB0009A8FAB8FBC8F698D7A8D8B8D9C8D20E02A
:102AC00030E04AEF54E40E941702DC01CB018D8B09
:102AD0009E8BAF8BB88F6D897E898F89988D20E012
:102AE00030E040E85FE30E941D0488232CF481E07D
:102AF00090E09C8B8B8B3FC06D897E898F89988DF0
:102B000020E03FEF4FE757E40E94BD0318164CF555
:102B1000698D7A8D8B8D9C8D20E030E040E251E410
:102B20000E941702DC01CB01BC01CD010E944100D3
:102B3000DC01CB019C8B8B8B0FC088EC90E09A8BD7
:102B4000898B89899A890197F1F79A8B898B8B896F
:102B50009C8901979C8B8B8B8B899C89009769F74B
:102B600014C06D897E898F89988D0E944100DC0197
:102B7000CB019C8B8B8B8B899C89988B8F878F85C6
:102B800098890197F1F7988B8F87FE01E558FF4FE1
:102B90008081882339F4FE01E658FF4F808183301D
:102BA00008F492CBFE01E658FF4F8081833009F094
:102BB00059C3FE01E658FF4F1082FE01E558FF4F52
:102BC00082E0808381E00E94160B85E060E00E9435
:102BD0005E0E89EB90E00E94E00C80E090E0AAE7B6
:102BE000B4E48B879C87AD87BE876B857C858D859C
:102BF0009E8520E030E04AEF54E40E941702DC0199
:102C0000CB018F839887A987BA876F81788589855B
:102C10009A8520E030E040E85FE30E941D048823AD
:102C20002CF481E090E09E838D833FC06F81788596
:102C300089859A8520E03FEF4FE757E40E94BD0366
:102C400018164CF56B857C858D859E8520E030E0DF
:102C500040E251E40E941702DC01CB01BC01CD012E
:102C60000E944100DC01CB019E838D830FC088EC64
:102C700090E09C838B838B819C810197F1F79C83EF
:102C80008B838D819E8101979E838D838D819E8113
:102C9000009769F714C06F81788589859A850E94AD
:102CA0004100DC01CB019E838D838D819E819A83BF
:102CB000898389819A810197F1F79A83898381E0D9
:102CC0000E94160BCFC2FE01E558FF4F8081823073
:102CD00009F4C8C284EC99E00E94120F80E060E021
:102CE0000E945E0E81EC90E00E94E00C0E94BC0EFF
:102CF000DC01CB01BC01CD010E94940D83E60E9452
:102D0000B40B0E94BC0EDC01CB01BC01CD0120E064
:102D100030E040ED51E40E94ED0388236CF080E048
:102D200062E041E00E942A098FE060E00E945E0EAE
:102D30008DE40E94B40B0CC080E062E040E00E9491
:102D40002A098FE060E00E945E0E80E20E94B40BD0
:102D500080E061E00E945E0E89EC90E00E94E00C51
:102D600081E00E943707FE01EB58FF4F918380837B
:102D7000FE01EB58FF4F808191810E946D07DC01BD
:102D8000CB01FE01EF58FF4F80839183A283B38371
:102D9000FE01EF58FF4F60817181828193812DE3A5
:102DA0003AE04FE950E40E94ED0388236CF081E0A3
:102DB0006FEF0E94E9078BE061E00E945E0E88E001
:102DC00090E00E94090D4EC2C757DF4F1882C958C4
:102DD000D040FE01EF58FF4F608171818281938165
:102DE00026E636E64EE950E40E94ED03882334F0EF
:102DF000F1E0C757DF4FF883C958D04081E0C7578B
:102E0000DF4F9881C958D0408927882381F5C8575A
:102E1000DF4F1882C858D040FE01EF58FF4F608145
:102E20007181828193812DE33AE04FE950E40E9461
:102E30001D04882334F4E1E0C857DF4FE883C85805
:102E4000D04081E0C857DF4FF881C858D0408F2765
:102E5000882369F481E06FE70E94E9078BE061E075
:102E60000E945E0E87E090E00E94090DFBC1C957E9
:102E7000DF4F1882C758D040FE01EF58FF4F6081E6
:102E80007181828193812DEC3CEC4CE950E40E94ED
:102E9000ED03882334F081E0C957DF4F8883C7589A
:102EA000D04081E0C957DF4F9881C758D04089276B
:102EB000882381F5CA57DF4F1882C658D040FE01DB
:102EC000EF58FF4F608171818281938126E636E65B
:102ED0004EE950E40E941D04882334F4E1E0CA570F
:102EE000DF4FE883C658D04081E0CA57DF4FF881F2
:102EF000C658D0408F27882369F481E06FE30E9491
:102F0000E9078BE061E00E945E0E86E090E00E949F
:102F1000090DA8C1CB57DF4F1882C558D040FE011C
:102F2000EF58FF4F60817181828193812CEE31E5F2
:102F300048E950E40E94ED03882334F081E0CB5748
:102F4000DF4F8883C558D04081E0CB57DF4F988151
:102F5000C558D0408927882381F5CC57DF4F188288
:102F6000C458D040FE01EF58FF4F608171818281CB
:102F700093812DEC3CEC4CE950E40E941D04882325
:102F800034F4E1E0CC57DF4FE883C458D04081E00F
:102F9000CC57DF4FF881C458D0408F27882369F47D
:102FA00081E06FE10E94E9078BE061E00E945E0E24
:102FB00085E090E00E94090D55C1CD57DF4F188282
:102FC000C358D040FE01EF58FF4F6081718182816C
:102FD00093812EEA37E441E950E40E94ED0388230F
:102FE00034F081E0CD57DF4F8883C358D04081E073
:102FF000CD57DF4F9881C358D0408927882381F56A
:10300000CE57DF4F1882C258D040FE01EF58FF4F15
:1030100060817181828193812CEE31E548E950E431
:103020000E941D04882334F4E1E0CE57DF4FE8838B
:10303000C258D04081E0CE57DF4FF881C258D0400F
:103040008F27882369F481E06FE00E94E9078BE015
:1030500061E00E945E0E84E090E00E94090D02C1D2
:10306000CF57DF4F1882C158D040FE01EF58FF4FB5
:10307000608171818281938128EB3EE145E850E4D3
:103080000E94ED03882334F081E0CF57DF4F88831F
:10309000C158D04081E0CF57DF4F9881C158D04010
:1030A0008927882381F5C058DF4F1882C058D04047
:1030B000FE01EF58FF4F60817181828193812EEA7A
:1030C00037E441E950E40E941D04882334F4E1E030
:1030D000C058DF4FE883C058D04081E0C058DF4F70
:1030E000F881C058D0408F27882369F481E067E0D9
:1030F0000E94E9078BE061E00E945E0E83E090E0B1
:103100000E94090DAFC0C158DF4F1882CF57D04081
:10311000FE01EF58FF4F608171818281938121EE22
:103120003AE744E550E40E94ED03882334F081E05F
:10313000C158DF4F8883CF57D04081E0C158DF4F5F
:103140009881CF57D0408927882351F5EF961FAE3D
:10315000EF97FE01EF58FF4F60817181828193816B
:1031600028EB3EE145E850E40E941D04882324F446
:10317000E1E0EF96EFAFEF9781E0EF96FFADEF97CD
:103180008F27882369F481E063E00E94E9078BE0E0
:1031900061E00E945E0E82E090E00E94090D62C034
:1031A000EE961FAEEE97FE01EF58FF4F60817181E2
:1031B0008281938120E030E040E250E40E94ED0300
:1031C000882324F081E0EE968FAFEE9781E0EE96B3
:1031D0009FADEE978927882351F5ED961FAEED97A9
:1031E000FE01EF58FF4F608171818281938121EE52
:1031F0003AE744E550E40E941D04882324F4E1E00A
:10320000ED96EFAFED9781E0ED96FFADED978F274F
:10321000882369F481E061E00E94E9078BE061E0C6
:103220000E945E0E81E090E00E94090D1BC0FE012D
:10323000EF58FF4F608171818281938120E030E0FF
:1032400040E250E40E941D04882364F481E060E0C1
:103250000E94E9078BE061E00E945E0E80E090E052
:103260000E94090DFE01E558FF4F8081823009F070
:103270002ACD0C947B1097FB092E07260AD077FDE8
:1032800004D00CD006D000201AF4709561957F4FC1
:103290000895F6F7909581959F4F0895AA1BBB1B43
:1032A00051E107C0AA1FBB1FA617B70710F0A61B46
:1032B000B70B881F991F5A95A9F780959095BC0167
:1032C000CD0108952F923F924F925F926F927F921D
:1032D0008F929F92AF92BF92CF92DF92EF92FF9226
:1032E0000F931F93CF93DF93CDB7DEB7CA1BDB0BD2
:1032F0000FB6F894DEBF0FBECDBF09942A88398877
:1033000048885F846E847D848C849B84AA84B9847D
:10331000C884DF80EE80FD800C811B81AA81B98189
:10332000CE0FD11D0FB6F894DEBF0FBECDBFED019D
:103330000895FB019F01E8944230C4F04532B4F493
:103340004A3029F497FB1EF4909581959F4F642F86
:1033500077270E944E19805D8A330CF0895D819336
:10336000CB010097A1F716F45DE251931082C901D9
:103370000C94BA19DC01FC01672F71917723E1F7F6
:10338000329704C07C916D9370836291AE17BF0732
:08339000C8F30895F894FFCF83
:1033980057656C636F6D6520746F20536D6172742F
:1033A80000486F6D652053797374656D00555345FA
:1033B800523A0050617373776F72643A0057656CC4
:1033C800636F6D650057524F4E4720506173737796
:1033D8006F72640054727920416761696E005752B8
:1033E8004F4E47205573657200476F6F6462796569
:1033F8000054656D70203A20004F6E204C65647350
:10340800203A200000000000000000000001020235
:103418000303030304040404040404040505050564
:103428000505050505050505050505050606060640
:103438000606060606060606060606060606060624
:103448000606060606060606060606060707070710
:1034580007070707070707070707070707070707F4
:1034680007070707070707070707070707070707E4
:1034780007070707070707070707070707070707D4
:1034880007070707070707070707070708080808C0
:1034980008080808080808080808080808080808A4
:1034A8000808080808080808080808080808080894
:1034B8000808080808080808080808080808080884
:1034C8000808080808080808080808080808080874
:1034D8000808080808080808080808080808080864
:1034E8000808080808080808080808080808080854
:1034F8000808080808080808080808080808080844
:0C35080008080808080808080808080857
:00000001FF
