:100000000C942A000C943F000C943F000C943F0089
:100010000C943F000C943F000C943F000C943F0064
:100020000C943F000C943F000C943F000C943F0054
:100030000C943F000C943F000C943F000C943F0044
:100040000C943F000C943F000C943F000C943F0034
:100050000C943F0011241FBECFE5D8E0DEBFCDBF1A
:1000600010E0A0E6B0E0E4EAF2E202C005900D92F2
:10007000A038B107D9F70E94150F0C9450110C94B9
:100080000000EF92FF920F931F937B018C0120E001
:1000900030E040E05FE40E94410388238CF0C80117
:1000A000B70120E030E040E05FE40E94B9010E9427
:1000B000A1039B01AC01205030404040504806C095
:1000C000C801B7010E94A1039B01AC01B901CA019B
:1000D0001F910F91FF90EF900895A0E0B0E0E3E74B
:1000E000F0E00C94E810DC012B01FA019C919230B5
:1000F00008F439C1EB018881823008F433C19430AF
:1001000069F4843009F02FC111969C91119789816F
:10011000981709F428C1A0E6B0E025C1843009F49D
:1001200021C18230A9F4923009F01DC19A01AD01BC
:1001300088E0EA010990AE01E90109929E0181502F
:10014000C1F7E201898111969C918923818308C1BD
:10015000923009F407C112962D903C901397EB0151
:100160008A819B811496AD90BD90CD90DC901797BD
:10017000EC80FD800E811F819101281B390BB90194
:1001800037FF04C066277727621B730B6032710547
:100190000CF061C0121613066CF537014801062EEB
:1001A00004C096948794779467940A94D2F721E0D8
:1001B00030E040E050E004C0220F331F441F551FC1
:1001C0006A95D2F721503040404050402E213F21C7
:1001D00040235123211531054105510521F021E02E
:1001E00030E040E050E079018A01E628F72808294C
:1001F00019293CC0232BD1F1260E371E35014601AB
:10020000062E04C096948794779467940A94D2F744
:1002100021E030E040E050E004C0220F331F441FD3
:10022000551F6A95D2F721503040404050402A2156
:100230003B214C215D21211531054105510521F05E
:1002400021E030E040E050E059016A01A628B728DB
:10025000C828D9280BC0821593052CF01C01AA24AC
:10026000BB24650103C0EE24FF24870111969C91F5
:10027000D20111968C91981709F445C0992339F051
:10028000A80197012A193B094C095D0906C0A6017E
:1002900095012E193F09400B510B57FD08C01182E3
:1002A0003382228224833583468357831DC081E0B5
:1002B00081833382228288279927DC01821B930B5A
:1002C000A40BB50B84839583A683B7830DC0220F3F
:1002D000331F441F551F24833583468357838281F0
:1002E000938101979383828324813581468157814D
:1002F000DA01C9010197A109B1098F5F9F4FAF4F83
:10030000BF4328F30BC0918333822282EA0CFB1C8B
:100310000C1D1D1DE482F5820683178383E0808314
:10032000248135814681578157FF1AC0C901AA2708
:1003300097FDA095BA2F81709070A070B0705695FF
:10034000479537952795822B932BA42BB52B848328
:100350009583A683B7838281938101969383828359
:10036000DF0101C0D201CD01CDB7DEB7E2E10C94CF
:100370000411A0E2B0E0EFEBF1E00C94F41069831B
:100380007A838B839C832D833E834F835887E9E058
:10039000EE2EF12CEC0EFD1ECE010196B7010E944F
:1003A000CA048E010F5E1F4FCE010596B8010E9450
:1003B000CA048A8991E089278A8BC701B801AE01F6
:1003C000475E5F4F0E946D000E94F503A096E6E035
:1003D0000C941011A0E2B0E0E0EFF1E00C94F41006
:1003E00069837A838B839C832D833E834F835887D5
:1003F000F9E0EF2EF12CEC0EFD1ECE010196B701B7
:100400000E94CA048E010F5E1F4FCE010596B801EF
:100410000E94CA04C701B801AE01475E5F4F0E9447
:100420006D000E94F503A096E6E00C941011A0E286
:10043000B0E0EDE1F2E00C94E81069837A838B83FD
:100440009C832D833E834F835887CE010196BE0146
:10045000675F7F4F0E94CA04CE010596BE016F5EA2
:100460007F4F0E94CA049985923088F08989823032
:10047000C8F0943019F4823051F404C0843029F467
:10048000923081F480E690E0C6C0923049F420E0DA
:100490009A858A89981321E02A87CE010996BBC0E4
:1004A000823049F420E09A858A89981321E02A8BCA
:1004B000CE014196B0C02D843E844F8458886D880B
:1004C0007E888F88988CEE24FF248701AA24BB2481
:1004D000650140E050E060E070E0E0E0F0E0C10184
:1004E00081709070892BE9F0E60CF71C081D191D2E
:1004F0009A01AB012A0D3B1D4C1D5D1D80E090E073
:10050000A0E0B0E0E614F7040805190520F481E046
:1005100090E0A0E0B0E0BA01A901480F591F6A1F9E
:100520007B1FAA0CBB1CCC1CDD1C97FE08C081E005
:1005300090E0A0E0B0E0A82AB92ACA2ADB2A3196C6
:10054000E032F10549F0660C771C881C991C569422
:10055000479437942794C3CFFA85EA892B893C893D
:100560008B859C85280F391F2E5F3F4F17C0CA010E
:1005700081709070892B61F016950795F794E79438
:1005800080E090E0A0E0B0E8E82AF92A0A2B1B2BD3
:1005900076956795579547952F5F3F4F77FDE7CF46
:1005A0000CC0440F551F661F771F17FD4160EE0CEE
:1005B000FF1C001F111F21503040403090E05907B0
:1005C00090E0690790E4790760F32B8F3C8FDB01A3
:1005D000CA018F779070A070B07080349105A1052A
:1005E000B10561F447FD0AC0E114F10401051105EC
:1005F00029F0405C5F4F6F4F7F4F40781A8EFE1797
:1006000011F081E08A8F4D8F5E8F6F8F78A383E02A
:10061000898FCE0149960E94F503A096E2E10C94E1
:100620000411A8E1B0E0E7E1F3E00C94F410698371
:100630007A838B839C832D833E834F83588789E005
:10064000E82EF12CEC0EFD1ECE010196B7010E94A2
:10065000CA048E010F5E1F4FCE010596B8010E949D
:10066000CA048985823040F08989823028F0C70128
:10067000B8010E94420501C08FEF6896E6E00C9435
:100680001011A8E1B0E0E7E4F3E00C94F410698302
:100690007A838B839C832D833E834F83588789E0A5
:1006A000E82EF12CEC0EFD1ECE010196B7010E9442
:1006B000CA048E010F5E1F4FCE010596B8010E943D
:1006C000CA048985823040F08989823028F0C701C8
:1006D000B8010E94420501C08FEF6896E6E00C94D5
:1006E0001011A8E1B0E0E7E7F3E00C94F41069839F
:1006F0007A838B839C832D833E834F83588789E045
:10070000E82EF12CEC0EFD1ECE010196B7010E94E1
:10071000CA048E010F5E1F4FCE010596B8010E94DC
:10072000CA048985823040F08989823028F0C70167
:10073000B8010E94420501C081E06896E6E00C9491
:100740001011ACE0B0E0E7EAF3E00C94F810698334
:100750007A838B839C83CE010196BE016B5F7F4FB2
:100760000E94CA048D81823061F1823050F1843060
:1007700021F48E81882351F12EC02F81388537FDD9
:1007800020C06E812F3131051CF06623F9F023C0A3
:100790008EE190E0821B930B29853A854B855C8521
:1007A00004C056954795379527958A95D2F76623C5
:1007B000B1F050954095309521953F4F4F4F5F4F89
:1007C0000EC020E030E040E050E009C02FEF3FEFE6
:1007D0004FEF5FE704C020E030E040E050E8B901AF
:1007E000CA012C96E2E00C941411DF92EF92FF9272
:1007F0000F931F93FC01E480F58006811781D1805F
:100800008081823048F480E090E0A0E1B0E0E82A06
:10081000F92A0A2B1B2BA5C0843009F49FC0823013
:1008200021F4EE24FF24870105C0E114F104010541
:10083000110519F4E0E0F0E096C0628173819FEF4A
:10084000623879070CF05BC022E83FEF261B370BBC
:100850002A3131052CF020E030E040E050E02AC0A1
:10086000B801A701022E04C0769567955795479564
:100870000A94D2F781E090E0A0E0B0E004C0880FD5
:10088000991FAA1FBB1F2A95D2F70197A109B10989
:100890008E219F21A023B1230097A105B10521F04E
:1008A00081E090E0A0E0B0E09A01AB01282B392B69
:1008B0004A2B5B2BDA01C9018F779070A070B07062
:1008C00080349105A105B10539F427FF09C0205CEA
:1008D0003F4F4F4F5F4F04C0215C3F4F4F4F5F4F23
:1008E000E0E0F0E02030A0E03A07A0E04A07A0E412
:1008F0005A0710F0E1E0F0E079018A0127C0603882
:10090000710564F5FB01E158FF4FD801C7018F77EE
:100910009070A070B07080349105A105B10539F4D4
:10092000E7FE0DC080E490E0A0E0B0E004C08FE3FB
:1009300090E0A0E0B0E0E80EF91E0A1F1B1F17FFB1
:1009400005C016950795F794E794319687E01695BC
:100950000795F794E7948A95D1F705C0EE24FF2414
:100960008701EFEFF0E06E2F679566276795902F70
:100970009F77D794DD24D7948E2F8695492F462BC9
:10098000582F5D29B701CA011F910F91FF90EF9079
:10099000DF900895FC01DB01408151812281622FAB
:1009A0006F7770E0221F2227221F9381892F880FE3
:1009B000822B282F30E0991F9927991F11969C931D
:1009C000119721153105A9F54115510561057105ED
:1009D00011F482E037C082E89FEF13969C938E93C8
:1009E00012979A01AB0167E0220F331F441F551F76
:1009F0006A95D1F783E08C930DC0220F331F441FFB
:100A0000551F12968D919C911397019713969C9365
:100A10008E931297203080E0380780E0480780E40A
:100A2000580758F314962D933D934D935C93179765
:100A300008952F3F310579F4411551056105710580
:100A400019F484E08C93089564FF03C081E08C93D3
:100A500012C01C9210C02F57304013963C932E9317
:100A6000129783E08C9387E0440F551F661F771F12
:100A70008A95D1F7706414964D935D936D937C9332
:100A8000179708951F93DC01FB019C91923008F4A5
:100A900047C08081823008F443C0943051F41196ED
:100AA0001C91843099F58181682F70E0611B710978
:100AB0003FC0843021F0923031F48230B9F181812D
:100AC000882389F12DC011961C9111978230F1F085
:100AD00081811817D9F412962D913C911397828138
:100AE00093818217930794F028173907BCF0149666
:100AF0008D919D910D90BC91A02D248135814681D1
:100B00005781281739074A075B0718F4112341F06A
:100B10000AC082179307A407B50740F4112319F000
:100B200061E070E005C06FEF7FEF02C060E070E051
:100B3000CB011F910895DF93CF9300D000D0CDB7A4
:100B4000DEB789836A838981282F30E03C832B8339
:100B50008B819C8181309105D1F02B813C812230A9
:100B600031052CF48B819C81009761F01EC02B8194
:100B70003C812230310581F08B819C81833091054D
:100B800081F013C0EAE3F0E08A8180830EC0E7E3DE
:100B9000F0E08A81808309C0E4E3F0E08A81808309
:100BA00004C0E1E3F0E08A8180830F900F900F9002
:100BB0000F90CF91DF910895DF93CF9300D000D0B5
:100BC000CDB7DEB789836A838981282F30E03C83E3
:100BD0002B838B819C8181309105D1F02B813C81CD
:100BE000223031052CF48B819C81009761F01EC06E
:100BF0002B813C812230310581F08B819C818330B7
:100C0000910581F013C0EBE3F0E08A8180830EC090
:100C1000E8E3F0E08A81808309C0E5E3F0E08A81BF
:100C2000808304C0E2E3F0E08A8180830F900F901C
:100C30000F900F90CF91DF910895DF93CF93CDB7B1
:100C4000DEB727970FB6F894DEBF0FBECDBF8983FE
:100C50006A834B838B81813009F06FC08981282F93
:100C600030E03F832E838E819F818130910549F151
:100C70002E813F81223031052CF48E819F81009797
:100C800061F0D2C02E813F812230310571F18E8119
:100C90009F8183309105E9F1C7C0AAE3B0E0EAE3A0
:100CA000F0E08081482F8A81282F30E081E090E0B9
:100CB000022E02C0880F991F0A94E2F7842B8C93AE
:100CC000B3C0A7E3B0E0E7E3F0E08081482F8A817A
:100CD000282F30E081E090E0022E02C0880F991F9B
:100CE0000A94E2F7842B8C939FC0A4E3B0E0E4E382
:100CF000F0E08081482F8A81282F30E081E090E069
:100D0000022E02C0880F991F0A94E2F7842B8C935D
:100D10008BC0A1E3B0E0E1E3F0E08081482F8A815D
:100D2000282F30E081E090E0022E02C0880F991F4A
:100D30000A94E2F7842B8C9377C08B81882309F087
:100D400073C08981282F30E03D832C838C819D8165
:100D50008130910559F12C813D81223031052CF4EF
:100D60008C819D81009769F05FC02C813D8122308C
:100D7000310589F18C819D818330910509F440C052
:100D800053C0AAE3B0E0EAE3F0E08081482F8A8113
:100D9000282F30E081E090E0022E02C0880F991FDA
:100DA0000A94E2F7809584238C933EC0A7E3B0E0D9
:100DB000E7E3F0E08081482F8A81282F30E081E04E
:100DC00090E0022E02C0880F991F0A94E2F78095E6
:100DD00084238C9329C0A4E3B0E0E4E3F0E08081B5
:100DE000482F8A81282F30E081E090E0022E02C057
:100DF000880F991F0A94E2F7809584238C9314C07E
:100E0000A1E3B0E0E1E3F0E08081482F8A81282F60
:100E100030E081E090E0022E02C0880F991F0A9412
:100E2000E2F7809584238C9327960FB6F894DEBF63
:100E30000FBECDBFCF91DF910895DF93CF93CDB794
:100E4000DEB729970FB6F894DEBF0FBECDBF8983FA
:100E50006A834B838B81813009F06FC08981282F91
:100E600030E039872887888599858130910549F157
:100E700028853985223031052CF48885998500979D
:100E800061F045C1288539852230310571F18885A9
:100E9000998583309105E9F13AC1ABE3B0E0EBE32A
:100EA000F0E08081482F8A81282F30E081E090E0B7
:100EB000022E02C0880F991F0A94E2F7842B8C93AC
:100EC00026C1A8E3B0E0E8E3F0E08081482F8A8102
:100ED000282F30E081E090E0022E02C0880F991F99
:100EE0000A94E2F7842B8C9312C1A5E3B0E0E5E30A
:100EF000F0E08081482F8A81282F30E081E090E067
:100F0000022E02C0880F991F0A94E2F7842B8C935B
:100F1000FEC0A2E3B0E0E2E3F0E08081482F8A81E6
:100F2000282F30E081E090E0022E02C0880F991F48
:100F30000A94E2F7842B8C93EAC08B81882309F012
:100F400074C08981282F30E03F832E838E819F815A
:100F50008130910559F12E813F81223031052CF4E9
:100F60008E819F81009769F0D2C02E813F8122300F
:100F7000310589F18E819F818330910509F440C04C
:100F8000C6C0ABE3B0E0EBE3F0E08081482F8A819C
:100F9000282F30E081E090E0022E02C0880F991FD8
:100FA0000A94E2F7809584238C93B1C0A8E3B0E063
:100FB000E8E3F0E08081482F8A81282F30E081E04B
:100FC00090E0022E02C0880F991F0A94E2F78095E4
:100FD00084238C939CC0A5E3B0E0E5E3F0E080813E
:100FE000482F8A81282F30E081E090E0022E02C055
:100FF000880F991F0A94E2F7809584238C9387C009
:10100000A2E3B0E0E2E3F0E08081482F8A81282F5C
:1010100030E081E090E0022E02C0880F991F0A9410
:10102000E2F7809584238C9372C08B81823009F023
:101030006EC08981282F30E03D832C838C819D8177
:101040008130910549F12C813D81223031052CF40C
:101050008C819D81009761F05AC02C813D812230A6
:10106000310571F18C819D8183309105E9F14FC08B
:10107000ABE3B0E0EBE3F0E08081482F8A81282FDA
:1010800030E081E090E0022E02C0880F991F0A94A0
:10109000E2F784278C933BC0A8E3B0E0E8E3F0E0FC
:1010A0008081482F8A81282F30E081E090E0022E55
:1010B00002C0880F991F0A94E2F784278C9327C0F7
:1010C000A5E3B0E0E5E3F0E08081482F8A81282F96
:1010D00030E081E090E0022E02C0880F991F0A9450
:1010E000E2F784278C9313C0A2E3B0E0E2E3F0E0E0
:1010F0008081482F8A81282F30E081E090E0022E05
:1011000002C0880F991F0A94E2F784278C932996CE
:101110000FB6F894DEBF0FBECDBFCF91DF9108951B
:10112000DF93CF9300D000D00F92CDB7DEB78A8384
:101130006B838A81282F30E03D832C834C815D8135
:101140004130510541F18C819D818230910534F40B
:101150002C813D812115310561F052C04C815D81AA
:101160004230510551F18C819D8183309105B9F157
:1011700047C0E9E3F0E08081282F30E08B81882FA1
:1011800090E0A90102C0559547958A95E2F7CA01FA
:101190008170898335C0E6E3F0E08081282F30E05C
:1011A0008B81882F90E0A90102C0559547958A95BB
:1011B000E2F7CA018170898323C0E3E3F0E0808114
:1011C000282F30E08B81882F90E0A90102C055952F
:1011D00047958A95E2F7CA018170898311C0E0E3DF
:1011E000F0E08081282F30E08B81882F90E0A901EA
:1011F00002C0559547958A95E2F7CA0181708983A7
:1012000089810F900F900F900F900F90CF91DF91E9
:101210000895DF93CF9300D0CDB7DEB71A821BC0FD
:101220008A81882F90E0FC01E859FF4F908181E08E
:10123000692F41E00E941D068A81882F90E0FC0101
:10124000E859FF4F908181E0692F41E00E941D071E
:101250008A818F5F8A838A81843010F319821BC050
:101260008981882F90E0FC01E459FF4F908181E053
:10127000692F40E00E941D068981882F90E0FC01C3
:10128000E459FF4F908181E0692F41E00E941D07E2
:1012900089818F5F89838981843010F30F900F904B
:1012A000CF91DF910895DF93CF93CDB7DEB76197EC
:1012B0000FB6F894DEBF0FBECDBF8FEF888B1F86B1
:1012C00096C08F85882F90E0FC01E859FF4F808100
:1012D0000E943D0A8F85882F90E0FC01E859FF4F5E
:1012E00080810E940B0A898B89898F3F59F08F85F5
:1012F000882F90E0880F991F880F991F982F898950
:10130000890F888B80E090E0A0E0B0E48B879C8719
:10131000AD87BE876B857C858D859E8520E030E01E
:101320004AEF54E40E941702DC01CB018F839887B7
:10133000A987BA876F81788589859A8520E030E012
:1013400040E85FE30E94710388232CF481E090E081
:101350009E838D833FC06F81788589859A8520E043
:101360003FEF4FE757E40E94110318164CF56B85C9
:101370007C858D859E8520E030E040E251E40E942E
:101380001702DC01CB01BC01CD010E944100DC0150
:10139000CB019E838D830FC088EC90E09C838B8370
:1013A0008B819C810197F1F79C838B838D819E813A
:1013B00001979E838D838D819E81009769F714C06C
:1013C0006F81788589859A850E944100DC01CB0177
:1013D0009E838D838D819E819A83898389819A8161
:1013E0000197F1F79A8389838F858F5F8F878F8528
:1013F000843008F466CF8889882F90E0FC01E0599A
:10140000FF4F808161960FB6F894DEBF0FBECDBF4F
:10141000CF91DF910895DF93CF9300D00F92CDB796
:10142000DEB78A83198218C08981882F90E0FC0179
:10143000E459FF4F908181E0692F0E949008882332
:1014400041F481E06A8141E00E941D0789818B831C
:101450000DC089818F5F89838981843028F381E081
:101460006A8141E00E941D078FEF8B838B810F9073
:101470000F900F90CF91DF910895DF93CF930F924C
:10148000CDB7DEB7898381E0698140E00E941D0706
:101490000F90CF91DF910895DF93CF93CDB7DEB753
:1014A0002F970FB6F894DEBF0FBECDBF8F8783E0B6
:1014B00062E040E00E941D0783E063E040E00E949C
:1014C0001D0782E06F850E94DC0583E064E041E057
:1014D0000E941D0780E090E0A0E0B0E48B879C872D
:1014E000AD87BE876B857C858D859E8520E030E04D
:1014F0004AEF54E40E941702DC01CB018F839887E6
:10150000A987BA876F81788589859A8520E030E040
:1015100040E85FE30E94710388232CF481E090E0AF
:101520009E838D833FC06F81788589859A8520E071
:101530003FEF4FE757E40E94110318164CF56B85F7
:101540007C858D859E8520E030E040E251E40E945C
:101550001702DC01CB01BC01CD010E944100DC017E
:10156000CB019E838D830FC088EC90E09C838B839E
:101570008B819C810197F1F79C838B838D819E8168
:1015800001979E838D838D819E81009769F714C09A
:101590006F81788589859A850E944100DC01CB01A5
:1015A0009E838D838D819E819A83898389819A818F
:1015B0000197F1F79A83898383E064E040E00E9419
:1015C0001D072F960FB6F894DEBF0FBECDBFCF918B
:1015D000DF910895DF93CF93CDB7DEB72F970FB686
:1015E000F894DEBF0FBECDBF8F8783E062E041E09D
:1015F0000E941D0783E063E040E00E941D0782E037
:101600006F850E94DC0583E064E041E00E941D07D5
:1016100080E090E0A0E0B0E48B879C87AD87BE8738
:101620006B857C858D859E8520E030E04AEF54E413
:101630000E941702DC01CB018F839887A987BA87A4
:101640006F81788589859A8520E030E040E85FE306
:101650000E94710388232CF481E090E09E838D83A7
:101660003FC06F81788589859A8520E03FEF4FE7FD
:1016700057E40E94110318164CF56B857C858D8507
:101680009E8520E030E040E251E40E941702DC0138
:10169000CB01BC01CD010E944100DC01CB019E8346
:1016A0008D830FC088EC90E09C838B838B819C8121
:1016B0000197F1F79C838B838D819E8101979E8397
:1016C0008D838D819E81009769F714C06F81788525
:1016D00089859A850E944100DC01CB019E838D8320
:1016E0008D819E819A83898389819A810197F1F7FF
:1016F0009A83898383E064E040E00E941D072F966F
:101700000FB6F894DEBF0FBECDBFCF91DF91089525
:10171000DF93CF93CDB7DEB72E970FB6F894DEBF29
:101720000FBECDBF80E090E0ACE0B2E48B879C8739
:10173000AD87BE876B857C858D859E8520E030E0FA
:101740004AEF54E40E941702DC01CB018F83988793
:10175000A987BA876F81788589859A8520E030E0EE
:1017600040E85FE30E94710388232CF481E090E05D
:101770009E838D833FC06F81788589859A8520E01F
:101780003FEF4FE757E40E94110318164CF56B85A5
:101790007C858D859E8520E030E040E251E40E940A
:1017A0001702DC01CB01BC01CD010E944100DC012C
:1017B000CB019E838D830FC088EC90E09C838B834C
:1017C0008B819C810197F1F79C838B838D819E8116
:1017D00001979E838D838D819E81009769F714C048
:1017E0006F81788589859A850E944100DC01CB0153
:1017F0009E838D838D819E819A83898389819A813D
:101800000197F1F79A8389838CE30E944C0A8CE05C
:101810000E944C0A81E00E944C0A2E960FB6F89462
:10182000DEBF0FBECDBFCF91DF910895DF93CF9381
:1018300000D00F92CDB7DEB79B838A8319820EC08A
:101840008981282F30E08A819B81FC01E20FF31F00
:1018500080810E94EA0A89818F5F89838981282F8C
:1018600030E08A819B81FC01E20FF31F8081882395
:1018700039F70F900F900F90CF91DF910895DF937C
:10188000CF9300D0CDB7DEB79A83898389819A81BF
:10189000992354F089819A818A3091052CF48981A9
:1018A000805D0E94EA0A71C089819A8128ED813F9A
:1018B00092077CF089819A8199235CF48DE20E94E1
:1018C000EA0A89819A81909581959F4F0E943F0CE9
:1018D0005CC089819A818A309105CCF089819A8196
:1018E00084369105A4F489819A812AE030E0B90117
:1018F0000E94C110CB010E943F0C89819A812AE08D
:1019000030E0B9010E94C1100E943F0C3EC08981A5
:101910009A8184369105D4F089819A8123E0883EAA
:101920009207A4F489819A812AE030E0B9010E94EB
:10193000C110CB010E943F0C89819A812AE030E0DE
:10194000B9010E94C1100E943F0C1FC089819A8179
:1019500023E0883E9207CCF089819A8127E280318A
:1019600092079CF489819A812AE030E0B9010E94B3
:10197000C110CB010E943F0C89819A812AE030E09E
:10198000B9010E94C1100E943F0C0F900F90CF919F
:10199000DF9108950F931F93DF93CF9300D000D072
:1019A000CDB7DEB769837A838B839C8369817A8123
:1019B0008B819C810E94A103DC01CB010E943F0C22
:1019C0008EE20E94EA0A69817A818B819C8120E003
:1019D00030E040E251E40E941702DC01CB01BC017F
:1019E000CD010E94A103DC01CB018C0169817A81C8
:1019F0008B819C810E94A103DC01CB019C01C80169
:101A0000B9010E94C110181619061CF569817A8166
:101A10008B819C8120E030E040E251E40E9417027B
:101A2000DC01CB01BC01CD010E94A103DC01CB0193
:101A30008C0169817A818B819C810E94A103DC01E8
:101A4000CB019C01C801B9010E94C1100E943F0C4A
:101A500025C069817A818B819C8120E030E040E261
:101A600051EC0E941702DC01CB01BC01CD010E94A8
:101A7000A103DC01CB018C0189819A81AB81BC81FE
:101A8000B058BC01CD010E94A103DC01CB019C0137
:101A9000C801B9010E94C1100E943F0C0F900F9025
:101AA0000F900F90CF91DF911F910F910895DF93C9
:101AB000CF93CDB7DEB7A2970FB6F894DEBF0FBEB7
:101AC000CDBF9AA389A389A19AA19E012F5F3F4F01
:101AD000B9014AE050E00E941F11CE0101960E9418
:101AE000160CA2960FB6F894DEBF0FBECDBFCF91F5
:101AF000DF910895DF93CF93CDB7DEB782E06FEF2C
:101B00000E949B0583E062E041E00E941D0683E0A5
:101B100063E041E00E941D0683E064E041E00E9432
:101B20001D06CF91DF910895DF93CF9300D00F92E0
:101B3000CDB7DEB78A836B838B81882319F48A81C2
:101B4000898306C08B81813019F48A81805C898306
:101B5000898180580E944C0A0F900F900F90CF916E
:101B6000DF910895DF93CF93CDB7DEB727970FB6F8
:101B7000F894DEBF0FBECDBF9C838B836D834E83F5
:101B80002F838D81882F90E0880F991F880F991FD0
:101B9000880F991F8A838A81805C0E944C0A19826F
:101BA0000EC08981282F30E08B819C81FC01E20FDF
:101BB000F31F80810E94EA0A89818F5F898389816E
:101BC000883078F38E816F810E94940D8D810E9400
:101BD000EA0A27960FB6F894DEBF0FBECDBFCF91AD
:101BE000DF910895DF93CF93CDB7DEB780E060E05B
:101BF00041E00E941D0680E061E041E00E941D0678
:101C000080E062E041E00E941D0680E063E041E088
:101C10000E941D0680E064E041E00E941D0680E015
:101C200065E041E00E941D0680E066E041E00E9420
:101C30001D06CF91DF910895DF93CF930F92CDB71B
:101C4000DEB780E067E00E949008898380E060E072
:101C50000E94DC0580E067E049810E941D070F902B
:101C6000CF91DF910895DF93CF9300D000D0CDB70F
:101C7000DEB78A8380E067E00E94900889838A81CA
:101C8000282F30E03C832B838B819C81843091050D
:101C900009F455C02B813C8125303105DCF48B8162
:101CA0009C818130910509F43BC02B813C8122301D
:101CB00031052CF48B819C81009769F15DC02B81EB
:101CC0003C812230310589F18B819C8183309105E3
:101CD00089F152C02B813C812730310509F43EC087
:101CE0008B819C81883091055CF42B813C8125306F
:101CF000310551F18B819C818630910551F13CC0B9
:101D00002B813C812830310571F18B819C81893098
:101D1000910571F131C080E06FE30E94DC052CC0B9
:101D200080E066E00E94DC0527C080E06BE50E9451
:101D3000DC0522C080E06FE40E94DC051DC080E06D
:101D400066E60E94DC0518C080E06DE60E94DC05B6
:101D500013C080E06DE70E94DC050EC080E067E004
:101D60000E94DC0509C080E06FE70E94DC0504C02A
:101D700080E06FE60E94DC0580E067E049810E9418
:101D80001D070F900F900F900F90CF91DF91089546
:101D9000DF93CF93CDB7DEB7AAE2B0E0EAE2F0E09E
:101DA00080818B7F8C93E0E4F0E086E88083E9E239
:101DB000F0E083E38083AAE2B0E0EAE2F0E0808131
:101DC00080618C93AAE2B0E0EAE2F0E08081886072
:101DD0008C93CF91DF910895DF93CF930F92CDB77E
:101DE000DEB78983EBE2F0E080818295869587708B
:101DF000882F90E0817090700097A1F3ECE2F0E002
:101E0000898180830F90CF91DF910895DF93CF93E5
:101E1000CDB7DEB7EBE2F0E080818823DCF7ECE2BF
:101E2000F0E08081CF91DF910895DF93CF93CDB71C
:101E3000DEB7A2970FB6F894DEBF0FBECDBF81E02C
:101E40008B8B82E08C8B83E08D8B84E08E8B81E0AA
:101E50008F8B82E0888F83E0898F84E08A8F83E094
:101E60008A8B80E067E040E00E941D0680E067E02A
:101E700041E00E941D070E94C80E0E9409090E94AD
:101E8000F20D77C080E090E0A8ECB2E48B879C87ED
:101E9000AD87BE876B857C858D859E8520E030E093
:101EA0004AEF54E40E941702DC01CB018F8398872C
:101EB000A987BA876F81788589859A8520E030E087
:101EC00040E85FE30E94710388232CF481E090E0F6
:101ED0009E838D833FC06F81788589859A8520E0B8
:101EE0003FEF4FE757E40E94110318164CF56B853E
:101EF0007C858D859E8520E030E040E251E40E94A3
:101F00001702DC01CB01BC01CD010E944100DC01C4
:101F1000CB019E838D830FC088EC90E09C838B83E4
:101F20008B819C810197F1F79C838B838D819E81AE
:101F300001979E838D838D819E81009769F714C0E0
:101F40006F81788589859A850E944100DC01CB01EB
:101F50009E838D838D819E819A83898389819A81D5
:101F60000197F1F79A83898382E00E94EC0E0E9428
:101F70001C0E80E067E00E949008882309F082CF61
:101F80008A890E94330E83E00E94EC0E0E94060FA5
:101F90008D33E1F7198A188A1F86B2C01B8E1C8EFA
:101FA0001D8E1E8E1F8E18A219A21AA226C00E9474
:101FB00053098F878F85803300F18F858A33E8F44A
:101FC00089898430D0F40E945309803320F00E9424
:101FD00053098A33C0F38F850E94EC0E8989282F1C
:101FE00030E08F85482F4053CE014B96FC01E20F25
:101FF000F31F408389898F5F898B8F858D33B9F675
:10200000198A0E9453098D33E1F38DE30E94EC0E8F
:102010001F86CE0143969E01255E3F4FB9010E9467
:102020008B10873009F059C085E00E94EC0E26C065
:102030000E9453098F878F85803300F18F858A3303
:10204000E8F488898430D0F40E945309803320F06A
:102050000E9453098A33C0F38F850E94EC0E888951
:10206000282F30E08F85482F4053CE014F96FC013A
:10207000E20FF31F408388898F5F888B8F858D33B4
:10208000B9F6188A0E9453098D33E1F38DE30E945B
:10209000EC0E1F86CE0147969E01215E3F4FB9018F
:1020A0000E948B10873029F485E00E94EC0E1A8A7A
:1020B00027C0CE0147969E01215E3F4FB9010E9485
:1020C0008B108630E9F484E00E94EC0E8A898150FE
:1020D0008A8B8A890E94330E13C0CE0143969E01DB
:1020E000255E3F4FB9010E948B10863049F484E091
:1020F0000E94EC0E8A8981508A8B8A890E94330E55
:102100008A89882309F04ACF8A89882309F031CF48
:1021100083E08A8B2ECFDF93CF9300D000D000D006
:10212000CDB7DEB79B838A837D836C8319821AC007
:102130008981282F30E08A819B81FC01E20FF31F07
:1021400040818981282F30E08C819D81FC01E20F44
:10215000F31F8081481719F086E08E8308C08981BB
:102160008F5F89838981843018F387E08E838E8125
:1021700026960FB6F894DEBF0FBECDBFCF91DF918C
:10218000089597FB092E07260AD077FD04D00CD0BE
:1021900006D000201AF4709561957F4F0895F6F7E8
:1021A000909581959F4F0895AA1BBB1B51E107C0D5
:1021B000AA1FBB1FA617B70710F0A61BB70B881FD7
:1021C000991F5A95A9F780959095BC01CD01089566
:1021D0002F923F924F925F926F927F928F929F9237
:1021E000AF92BF92CF92DF92EF92FF920F931F9325
:1021F000CF93DF93CDB7DEB7CA1BDB0B0FB6F894D6
:10220000DEBF0FBECDBF09942A88398848885F8415
:102210006E847D848C849B84AA84B984C884DF8086
:10222000EE80FD800C811B81AA81B981CE0FD11D6A
:102230000FB6F894DEBF0FBECDBFED010895FB01D0
:102240009F01E8944230C4F04532B4F44A3029F496
:1022500097FB1EF4909581959F4F642F77270E94DE
:10226000D410805D8A330CF0895D8193CB01009797
:10227000A1F716F45DE251931082C9010C9440114C
:10228000DC01FC01672F71917723E1F7329704C0DD
:102290007C916D9370836291AE17BF07C8F3089568
:0422A000F894FFCFE0
:1022A400000000000000000000010203040506070E
:1022B4003738392F3435362A3132332D43303D2BDC
:00000001FF
