:100000000C942A000C943F000C943F000C943F0089
:100010000C943F000C943F000C943F000C943F0064
:100020000C943F000C943F000C943F000C943F0054
:100030000C943F000C943F000C943F000C943F0044
:100040000C943F000C943F000C943F000C943F0034
:100050000C943F0011241FBECFE5D8E0DEBFCDBF1A
:1000600011E0A0E6B0E0E8E5F2E102C005900D92F3
:10007000AA3CB107D9F70E9484070C942A090C9472
:100080000000A0E2B0E0E7E4F0E00C94C20869836D
:100090007A838B839C832D833E834F835887CE0145
:1000A0000196BE01675F7F4F0E94D803CE0105967F
:1000B000BE016F5E7F4F0E94D8039985923088F011
:1000C00089898230C8F0943019F4823051F404C028
:1000D000843029F4923081F481EC90E0C6C09230F3
:1000E00049F420E09A858A89981321E02A87CE0175
:1000F0000996BBC0823049F420E09A858A8998131A
:1001000021E02A8BCE014196B0C02D843E844F84DD
:1001100058886D887E888F88988CEE24FF2487010C
:10012000AA24BB24650140E050E060E070E0E0E01C
:10013000F0E0C10181709070892BE9F0E60CF71CAA
:10014000081D191D9A01AB012A0D3B1D4C1D5D1D9B
:1001500080E090E0A0E0B0E0E614F704080519059F
:1001600020F481E090E0A0E0B0E0BA01A901480FDE
:10017000591F6A1F7B1FAA0CBB1CCC1CDD1C97FEE1
:1001800008C081E090E0A0E0B0E0A82AB92ACA2A1D
:10019000DB2A3196E032F10549F0660C771C881CA9
:1001A000991C5694479437942794C3CFFA85EA89CB
:1001B0002B893C898B859C85280F391F2E5F3F4FEB
:1001C00017C0CA0181709070892B61F01695079550
:1001D000F794E79480E090E0A0E0B0E8E82AF92AFC
:1001E0000A2B1B2B76956795579547952F5F3F4FA9
:1001F00077FDE7CF0CC0440F551F661F771F17FD13
:100200004160EE0CFF1C001F111F21503040403098
:1002100090E0590790E0690790E4790760F32B8F2D
:100220003C8FDB01CA018F779070A070B070803472
:100230009105A105B10561F447FD0AC0E114F1047F
:100240000105110529F0405C5F4F6F4F7F4F4078EB
:100250001A8EFE1711F081E08A8F4D8F5E8F6F8F9F
:1002600078A383E0898FCE0149960E940303A0966C
:10027000E2E10C94DE08A8E1B0E0E1E4F1E00C94E6
:10028000CA0869837A838B839C832D833E834F8343
:100290005887B9E0EB2EF12CEC0EFD1ECE01019635
:1002A000B7010E94D8038E010F5E1F4FCE01059645
:1002B000B8010E94D8032985223008F47EC039890C
:1002C000323010F4B8017CC08A859A8989278A87E0
:1002D000243011F0223031F4231709F06EC061ECA4
:1002E00070E06EC0343039F41D861E861F86188A71
:1002F0001C861B8604C0323021F484E08987B70154
:100300005FC02B853C858B899C89281B390B3C87DA
:100310002B87ED84FE840F851889AD88BE88CF8831
:10032000D88CEA14FB040C051D0540F4EE0CFF1CF0
:10033000001F111F215030403C872B8720E030E008
:1003400040E050E080E090E0A0E0B0E460E070E0E9
:10035000EA14FB040C051D0540F0282B392B4A2B11
:100360005B2BEA18FB080C091D09B695A795979514
:100370008795EE0CFF1C001F111F6F5F7F4F6F31C1
:10038000710531F7DA01C9018F779070A070B070F4
:1003900080349105A105B10561F427FD0AC0E1147F
:1003A000F1040105110529F0205C3F4F4F4F5F4FCD
:1003B00020782D873E874F87588BBE01675F7F4F20
:1003C000CB010E9403036896EAE00C94E608ACE0D7
:1003D000B0E0EDEEF1E00C94D20869837A838B8370
:1003E0009C83CE010196BE016B5F7F4F0E94D803B4
:1003F0008D81823061F1823050F1843021F48E8120
:10040000882351F12EC02F81388537FD20C06E81A1
:100410002F3131051CF06623F9F023C08EE190E006
:10042000821B930B29853A854B855C8504C05695C4
:100430004795379527958A95D2F76623B1F0509561
:100440004095309521953F4F4F4F5F4F0EC020E0B4
:1004500030E040E050E009C02FEF3FEF4FEF5FE7A3
:1004600004C020E030E040E050E8B901CA012C9619
:10047000E2E00C94EE08A8E0B0E0E1E4F2E00C94D5
:10048000CA087B018C01611571058105910519F47C
:1004900082E0898360C083E089838EE1C82ED12CFD
:1004A000DC82CB82ED82FE820F831887C801B70100
:1004B0000E94B402FC013197F7FF3BC0222733278B
:1004C0002E1B3F0B57016801022E04C0D694C7941F
:1004D000B794A7940A94D2F740E050E060E070E04F
:1004E00081E090E0A0E0B0E004C0880F991FAA1F4F
:1004F000BB1F2A95D2F70197A109B1098E219F212F
:10050000A023B1230097A105B10521F041E050E0FF
:1005100060E070E04A295B296C297D294D835E8368
:100520006F8378878EE190E08E1B9F0B9C838B837B
:1005300012C0309781F00E2E04C0EE0CFF1C001F7D
:10054000111F0A94D2F7ED82FE820F831887CE1A0C
:10055000DF0ADC82CB821A82CE0101960E9403035D
:100560002896EAE00C94E608EF92FF920F931F930F
:100570007B018C0180E0E81680E0F80681E0080746
:1005800080E0180788F48FEFE816F10401051105E3
:1005900031F028F088E090E0A0E0B0E017C080E003
:1005A00090E0A0E0B0E012C080E0E81680E0F8063D
:1005B00080E0080781E0180728F088E190E0A0E0DB
:1005C000B0E004C080E190E0A0E0B0E020E230E0E4
:1005D00040E050E0281B390B4A0B5B0B04C016951A
:1005E0000795F794E7948A95D2F7F701E753FF4F01
:1005F0008081281B310941095109C9011F910F91BF
:10060000FF90EF900895DF92EF92FF920F931F9368
:10061000FC01E480F58006811781D18080818230E1
:1006200048F480E090E0A0E1B0E0E82AF92A0A2B43
:100630001B2BA5C0843009F49FC0823021F4EE2426
:10064000FF24870105C0E114F1040105110519F427
:10065000E0E0F0E096C0628173819FEF6238790735
:100660000CF05BC022E83FEF261B370B2A31310527
:100670002CF020E030E040E050E02AC0B801A701B3
:10068000022E04C076956795579547950A94D2F740
:1006900081E090E0A0E0B0E004C0880F991FAA1F9D
:1006A000BB1F2A95D2F70197A109B1098E219F217D
:1006B000A023B1230097A105B10521F081E090E0CE
:1006C000A0E0B0E09A01AB01282B392B4A2B5B2B21
:1006D000DA01C9018F779070A070B07080349105F5
:1006E000A105B10539F427FF09C0205C3F4F4F4FEA
:1006F0005F4F04C0215C3F4F4F4F5F4FE0E0F0E0A1
:100700002030A0E03A07A0E04A07A0E45A0710F022
:10071000E1E0F0E079018A0127C06038710564F5F5
:10072000FB01E158FF4FD801C7018F779070A0708F
:10073000B07080349105A105B10539F4E7FE0DC014
:1007400080E490E0A0E0B0E004C08FE390E0A0E09F
:10075000B0E0E80EF91E0A1F1B1F17FF05C0169513
:100760000795F794E794319687E016950795F794E7
:10077000E7948A95D1F705C0EE24FF248701EFEFB7
:10078000F0E06E2F679566276795902F9F77D79437
:10079000DD24D7948E2F8695492F462B582F5D291F
:1007A000B701CA011F910F91FF90EF90DF9008955C
:1007B000FC01DB01408151812281622F6F7770E063
:1007C000221F2227221F9381892F880F822B282FF7
:1007D00030E0991F9927991F11969C931197211525
:1007E0003105A9F5411551056105710511F482E046
:1007F00037C082E89FEF13969C938E9312979A01CD
:10080000AB0167E0220F331F441F551F6A95D1F7D4
:1008100083E08C930DC0220F331F441F551F129687
:100820008D919C911397019713969C938E93129799
:10083000203080E0380780E0480780E4580758F30C
:1008400014962D933D934D935C93179708952F3FE6
:10085000310579F4411551056105710519F484E0FC
:100860008C93089564FF03C081E08C9312C01C92A6
:1008700010C02F57304013963C932E93129783E06D
:100880008C9387E0440F551F661F771F8A95D1F719
:10089000706414964D935D936D937C9317970895B0
:1008A00017B887B187B916B8349A86B1866086B909
:1008B000379A089597B1907E97B997B1982B97B9C9
:1008C000369A349BFECF349A24B135B1C9010895CC
:1008D000A0E0B0E0BC01CD010E943B0220E030E08E
:1008E00040E85AE30E94410020E030E040EA50E452
:1008F0000E9441000895813049F0813028F0823013
:1009000039F0833041F406C06ABB089567BB08958F
:1009100064BB089561BB0895813049F0813028F0AF
:10092000823039F0833041F406C06BBB089568BB58
:10093000089565BB089562BB08954130B1F58130DB
:1009400099F0813030F08230D1F0833009F067C007
:1009500021C02AB381E090E002C0880F991F6A95F8
:10096000E2F7282B2ABB089527B381E090E002C06C
:10097000880F991F6A95E2F7282B27BB089524B3A7
:1009800081E090E002C0880F991F6A95E2F7282B5A
:1009900024BB089521B381E090E002C0880F991F25
:1009A0006A95E2F7282B21BB08954423C1F58130D5
:1009B00099F0813028F08230D9F0833081F524C05D
:1009C0002AB381E090E002C0880F991F6A95E2F790
:1009D000809582238ABB089527B381E090E002C00E
:1009E000880F991F6A95E2F78095822387BB089547
:1009F00024B381E090E002C0880F991F6A95E2F766
:100A00008095822384BB089521B381E090E002C0E9
:100A1000880F991F6A95E2F78095822381BB08951C
:100A2000413099F5813091F0813030F08230C1F061
:100A3000833009F09CC01EC02BB381E090E002C05F
:100A4000880F991F6A95E2F7282B6FC028B381E0C1
:100A500090E002C0880F991F6A95E2F7282B70C0BA
:100A600025B381E090E002C0880F991F6A95E2F7F4
:100A7000282B71C022B381E090E002C0880F991F3B
:100A80006A95E2F7282B22BB08954423D1F58130E3
:100A9000A1F0813030F08230E1F0833009F067C09E
:100AA00024C02BB381E090E002C0880F991F6A95A3
:100AB000E2F7809582238BBB089528B381E090E014
:100AC00002C0880F991F6A95E2F78095822388BB40
:100AD000089525B381E090E002C0880F991F6A95C0
:100AE000E2F78095822385BB089522B381E090E0F0
:100AF00002C0880F991F6A95E2F78095822382BB16
:100B000008954230A1F5813091F0813028F0823093
:100B1000C9F0833061F521C02BB381E090E002C0C1
:100B2000880F991F6A95E2F728272BBB089528B3F1
:100B300081E090E002C0880F991F6A95E2F72827AC
:100B400028BB089525B381E090E002C0880F991F6B
:100B50006A95E2F7282725BB089522B381E090E04B
:100B600002C0880F991F6A95E2F7282722BB0895D3
:100B7000813049F0813028F0823039F08330B1F48F
:100B80000DC089B303C086B301C083B390E002C037
:100B9000959587956A95E2F78170089580B390E006
:100BA00002C0959587956A95E2F78170089582E075
:100BB0006FEF0E947B0483E062E041E00E949D04AD
:100BC00083E063E041E00E949D0483E064E041E053
:100BD0000E949D0408951F93182F83E062E041E076
:100BE0000E94100583E063E040E00E94100582E06F
:100BF000612F0E948C0483E064E041E00E941005B4
:100C000080EA9FE00197F1F783E064E040E00E9412
:100C100010051F910895CF93DF93EC01CA30D105E1
:100C200030F49E01205D822F0E94EB052CC0CE0186
:100C3000815F984D8F50974238F48DE20E94EB050A
:100C4000D095C195DF4FEACFCE010A978A3591053D
:100C500060F0CE01845690408458934030F0CE012D
:100C6000885E93408852934270F4CE016AE070E04F
:100C70000E949B08CB010E940B06CE016AE070E047
:100C80000E949B08CACFDF91CF910895AF92BF9287
:100C9000CF92DF92EF92FF920F931F935B016C0153
:100CA0000E94E7017B018C01CB010E940B068EE2C2
:100CB0000E94EB05C601B50120E030E040E251E4BE
:100CC0000E9441000E94E701DC01CB01B7010E94B4
:100CD0009B0818161906BCF0C601B50120E030E0EB
:100CE00040E251EC0E9441000E94E7017B018C012F
:100CF000C601B50190580E94E7019B01AC01C701F4
:100D0000B9010E949B080E940B061F910F91FF9052
:100D1000EF90DF90CF90BF90AF9008951F93CF9347
:100D2000DF93EC0110E003C00E94EB051F5FFE01A2
:100D3000E10FF11D80818823B9F7DF91CF911F91D9
:100D400008950F931F93DF93CF93CDB7DEB7A0978E
:100D50000FB6F894DEBF0FBECDBF8E010F5F1F4FE1
:100D6000B8014AE050E00E94F908C8010E948E06CE
:100D7000A0960FB6F894DEBF0FBECDBFCF91DF9126
:100D80001F910F9108951F93182F83E062E040E0B8
:100D90000E94100583E063E040E00E94100582E0BD
:100DA000612F0E948C0483E064E041E00E94100502
:100DB00080EA9FE00197F1F783E064E040E00E9461
:100DC00010051F910895662319F0613009F4805CC5
:100DD00080580E94C3060895DF92EF92FF920F930E
:100DE0001F93CF93DF938C01F62EE42ED22E862F05
:100DF000880F880F880F805C0E94C306C0E0D0E097
:100E0000F801EC0FFD1F80810E94EB052196C83090
:100E1000D105B1F78E2D6D2D0E94E3068F2D0E9416
:100E2000EB05DF91CF911F910F91FF90EF90DF9035
:100E300008958EE591E028EC30E0F9013197F1F763
:100E40000197D9F78CE30E94C3068CE00E94C30689
:100E500081E00E94C306089580E00E945A040E9427
:100E6000680420E030E04AE754E40E94410020E0BA
:100E700030E040E251E40E943B0108950E94710776
:100E800080ED97E00197F1F7089583E065E041E098
:100E90000E949D040E944D0708958FB58F7B8FBDE2
:100EA0008FB580688FBD8FB58E7F8FBD8FB5826007
:100EB0008FBD8EB588608EBD8EB580618EBD8EB5BE
:100EC0008E7F8EBD8EB582608EBD8EB58B7F8EBDC2
:100ED00080E29EE497BD86BD8EEE92E09BBD8ABD0A
:100EE00008959BBD8ABD0895529886E880BD83E32E
:100EF00089B9549A539A08955D9BFECF8CB9089591
:100F00005F9BFECF8CB10895EF92FF920F931F93DA
:100F1000CF93DF9381E06FEF0E947B0481E060E07C
:100F20000E948C0483E066E041E00E949D0480E022
:100F300062E041E00E949D040E9445070E94500427
:100F40000E94D7050E9419070E947407EE24C8EC7E
:100F5000D0E082E023C08BED95E00E943E070E9426
:100F600080078330D9F480E060E00E94E30680E6E9
:100F700090E00E948E0682E061E00E94E30681E735
:100F800090E00E948E0680E593ECFE013197F1F728
:100F90000197D9F781E00E94C306AEC08230D9F232
:100FA000A9C08DE30E947C0781E00E94C3068BEDFF
:100FB00095E00E943E0780E060E00E94E3068DE736
:100FC00090E00E948E0600E00E948007182F805358
:100FD0008A3058F4043048F4812F0E94EB050F5FEB
:100FE00083E066E042E00E9410051D3369F70E942D
:100FF0008007853009F060C085E090E00E940B0614
:1010000080E061E00E94E30683E890E00E948E06A3
:1010100000E00E948007182F0430E8F48033D8F0F5
:101020008A33C8F48AE0F82EF00E8F2D61E00E941A
:10103000E306812F0E94EB0588EE93E0FE013197D5
:10104000F1F70197D9F78F2D61E00E94E3068AE25C
:101050000E94EB050F5F1D33E1F60E94800785308B
:10106000D1F485E090E00E940B0681E00E94C30667
:1010700085E060E00E94E3068DE890E00E948E0625
:1010800080E197E2FE013197F1F70197D9F781E00E
:101090000E94C30635C0843079F584E090E00E9458
:1010A0000B06E39481E00E94C30680E060E00E94AA
:1010B000E30685E990E010C08430F1F484E090E02C
:1010C0000E940B06E39481E00E94C30680E060E08A
:1010D0000E94E3068EEA90E00E948E0683E0E81606
:1010E00059F084E061E00E94E30684EA90E00E9407
:1010F0008E0602C0882321F482E08E1508F051CFBD
:1011000083E0E81609F025CF81E00E94C30685E060
:1011100060E00E94E30689EB90E00E948E0680E189
:1011200097E2FE013197F1F70197D9F781E00E942C
:10113000C306EE240ECF97FB092E07260AD077FDB3
:1011400004D00CD006D000201AF4709561957F4F22
:101150000895F6F7909581959F4F0895AA1BBB1BA4
:1011600051E107C0AA1FBB1FA617B70710F0A61BA7
:10117000B70B881F991F5A95A9F780959095BC01C8
:10118000CD0108952F923F924F925F926F927F927E
:101190008F929F92AF92BF92CF92DF92EF92FF9287
:1011A0000F931F93CF93DF93CDB7DEB7CA1BDB0B33
:1011B0000FB6F894DEBF0FBECDBF09942A883988D8
:1011C00048885F846E847D848C849B84AA84B984DF
:1011D000C884DF80EE80FD800C811B81AA81B981EB
:1011E000CE0FD11D0FB6F894DEBF0FBECDBFED01FF
:1011F0000895FB019F01E8944230C4F04532B4F4F5
:101200004A3029F497FB1EF4909581959F4F642FE7
:1012100077270E94AE08805D8A330CF0895D819348
:10122000CB010097A1F716F45DE251931082C9013A
:101230000C941A09DC01FC01672F71917723E1F707
:10124000329704C07C916D9370836291AE17BF0793
:08125000C8F30895F894FFCFE4
:1012580057656C636F6D6520746F20536D61727490
:1012680000486F6D652053797374656D005553455B
:10127800523A0050617373776F72643A0057656C25
:10128800636F6D650057524F4E47205061737377F7
:101298006F72640054727920416761696E00575219
:1012A8004F4E47205573657200476F6F64627965CA
:1012B8000000000000000000000001020203030318
:1012C80003040404040404040405050505050505D0
:1012D80005050505050505050506060606060606AF
:1012E8000606060606060606060606060606060696
:1012F800060606060606060606070707070707077F
:101308000707070707070707070707070707070765
:101318000707070707070707070707070707070755
:101328000707070707070707070707070707070745
:10133800070707070707070707080808080808082E
:101348000808080808080808080808080808080815
:101358000808080808080808080808080808080805
:1013680008080808080808080808080808080808F5
:1013780008080808080808080808080808080808E5
:1013880008080808080808080808080808080808D5
:1013980008080808080808080808080808080808C5
:1013A80008080808080808080808080808080808B5
:0A13B80008080808080808080800E3
:00000001FF
